:100000000C942A000C94D1010C94F7010C94B600C6
:100010000C940D010C9447000C9447000C9447007D
:100020000C9447000C9447000C9447000C9460001B
:100030000C9447000C948E000C9447000C947F00A5
:100040000C9447000C9447000C9447000C94CB1878
:100050000C94470011241FBECFE5D4E0DEBFCDBF16
:1000600012E0A0E6B0E0ECE9FAE302C005900D92E0
:10007000A235B107D9F722E0A2E5B2E001C01D9296
:10008000A43CB207E1F70E9455170C944C1D0C9448
:10009000000013BE82EB82BF8EE48CBF8DE083BF75
:1000A00008951AB81BB886E880BD83E089B910BCF2
:1000B00088E98AB90895899A8898919A909A0895BA
:1000C0001F920F920FB60F9211248F939F939AB3A2
:1000D00080EA98279ABB9BB389278BBB5F9BFECF97
:1000E0008CB19AB380EA98279ABB9BB389278BBBC4
:1000F0009F918F910F900FBE0F901F9018951F9298
:100100000F920FB60F9211248F9380E48ABB8BBBA2
:100110008F910F900FBE0F901F9018951F920F9206
:100120000FB60F9211248F9380E88ABB8BBB8F91FF
:100130000F900FBE0F901F9018955D9BFECF8CB94E
:100140000895CF93DF93EC018991882319F00E94E1
:100150009D00FACFDF91CF91089515BC12BC82EBC0
:1001600084BD8EE483BD8FE085BD08951F920F92FC
:100170000FB60F9211242F933F934F935F936F937A
:100180007F938F939F93AF93BF93EF93FF93809150
:10019000520264E10E94CE18911123C08091600048
:1001A0008130F9F480915302082E000C990BFC0168
:1001B000EE0FFF1FEF59FF4F608171810E942501F3
:1001C000809153028F5F80935302082E000C990B8D
:1001D00020917100309172008217930711F41092F0
:1001E0005302809152028D3711F40E94B201809126
:1001F00052028F5F80935202FF91EF91BF91AF91B6
:100200009F918F917F916F915F914F913F912F912E
:100210000F900FBE0F901F9018951F920F920FB660
:100220000F9211248F9382EB84BD8F910F900FBE9C
:100230000F901F9018958AB387608ABB8BB3887F15
:100240008BBB8FEF87BB88BB08959FEF98BB811155
:1002500003C08BB3887F03C099B3987F892B8BBB76
:10026000E62FF0E0E658FF4F8081809588BB089527
:100270009FEF98BB811103C08BB3887F03C099B3F4
:10028000987F892B8BBB609568BB089580EF84BBFA
:100290008FE085BB08958E3B09F441C0D8F48E37BA
:1002A00009F440C060F48B3709F454C08D3709F469
:1002B00045C0873709F054C06FE070E04DC08B3BFC
:1002C00009F445C08D3BB9F1873B09F049C06EE0A8
:1002D00070E042C08E3DC9F048F48B3DA9F18D3DE0
:1002E00039F1873DE9F56DE070E036C08B3E49F1AC
:1002F00028F4873EA9F56CE070E02EC08D3EA9F091
:100300008E3E71F560E070E002C061E070E080E078
:1003100090E00E94250181E08093600021C062E0AE
:1003200070E01AC063E070E017C064E070E014C0D1
:1003300065E070E011C066E070E00EC067E070E05C
:100340000BC068E070E008C069E070E005C06AE0DA
:1003500070E002C06BE070E080E090E00E94250158
:100360000C94460183B38F3099F083B38093B90224
:1003700080EF85BB8FE084BB83B3803F49F093B3AC
:100380008091B902892B8093B80290E00C944B01C4
:100390000C94460181B3837F81BB82B38C6082BBA6
:1003A00008951F920F920FB60F9211242F933F932F
:1003B0004F935F936F937F938F939F93AF93BF936D
:1003C000EF93FF938DEE90E00E94A100FF91EF91DB
:1003D000BF91AF919F918F917F916F915F914F915D
:1003E0003F912F910F900FBE0F901F9018951F9265
:1003F0000F920FB60F9211242F933F934F935F9359
:100400006F937F938F939F93AF93BF93EF93FF93DC
:100410008CEF90E00E94A100FF91EF91BF91AF910E
:100420009F918F917F916F915F914F913F912F910C
:100430000F900FBE0F901F901895CF93C82F8A3042
:1004400019F48DE00E941D025D9BFECFCCB98C2F6C
:10045000CC0F990BCF9108955F9BFECF8CB190E0AC
:10046000089568E070E087E090E00E9425018EE149
:1004700090E00E94A302F5CF67E070E082E090E098
:100480000E9425018EE190E00E94A302F5CF08951D
:100490001BBA1ABA18BA17BA15BA14BA12BA11BADC
:1004A0000E941B010E9446010E945B000C94CA013D
:1004B000F8940E9448020E94AD000E9449000E94E8
:1004C000510084B7806884BF84B7806884BF15BE3C
:1004D00080EC8BBF83EC89BF7894089580E092E034
:1004E0000E948302EC01CE010E949C128BE091E0FD
:1004F0000E94A100BE018CE491E00E94A100CE0107
:100500000E949202F0CFCF93DF93EC010E94E20BA6
:10051000CE010E94E818EC010E94010DCE01DF918E
:10052000CF910895CF93DF93009751F0EC010E9493
:10053000E20BCE010E948019DF91CF910C94010D46
:10054000DF91CF910895009711F481E090E00C9431
:10055000040ECF93DF93CDB7DEB79E01255F3F4FEB
:1005600049855A856F8178858D819E810E94581AB0
:10057000DF91CF9108950C948302009711F00C94B1
:1005800092020895CF93DF9381E00E94D605EC019B
:10059000892B71F488ED90E09F938F9382E791E02F
:1005A0009F938F930E94201A0F900F900F900F909F
:1005B000CE01DF91CF910895CF93DF93EC010097A7
:1005C00039F487EC90E09F938F9385E991E024C004
:1005D0006FEF7FEF0E94D506813071F087EC90E0DD
:1005E0009F938F9389EA91E09F938F930E94201AA3
:1005F0000F900F900F900F9020E040E050E060E0EF
:1006000070E0CE010E944005813089F087EC90E0D7
:100610009F938F9385EC91E09F938F930E94201A74
:100620000F900F900F900F90DF91CF910895CE0112
:10063000DF91CF910C948408009739F489EB90E016
:100640009F938F9385E991E00CC06FEF7FEF0E943D
:10065000D506813071F089EB90E09F938F9389EA02
:1006600091E09F938F930E94201A0F900F900F900C
:100670000F900895009789F488EA90E09F938F93F4
:1006800085E991E09F938F930E94201A0F900F901D
:100690000F900F908FEF9FEF089560E070E00E9441
:1006A000D50621E030E0813011F420E030E08827E9
:1006B0009927821B930B0895009739F488E990E0FD
:1006C0009F938F9385E991E00FC020E040E050E0D8
:1006D00060E070E00E944005813071F088E990E0B0
:1006E0009F938F9385EC91E09F938F930E94201AA4
:1006F0000F900F900F900F90089580E090E00C9471
:10070000200BEF92FF920F930097C1F0FC016081E4
:1007100071816115710591F07C0182E0E80EF11C98
:1007200026813781428553850085848195810E9489
:10073000FC09813031F480E090E005C081E090E078
:1007400002C082E090E00F91FF90EF9008950C942A
:10075000AB0BCF93DF9340E00E941405EC01892B93
:1007600071F48AE890E09F938F9382E791E09F93E2
:100770008F930E94201A0F900F900F900F90CE0130
:10078000DF91CF9108950C9484080F931F93CF931A
:10079000DF93EC018B010E947708882391F020E021
:1007A0004FEF5FEFB801CE010E94400521E030E03D
:1007B000813011F420E030E088279927821B930BC9
:1007C00002C08FEF9FEFDF91CF911F910F9108959E
:1007D0004FEF5FEF0E94430621E030E0813011F4DB
:1007E00020E030E088279927821B930B0895CF9350
:1007F000DF931F92CDB7DEB7498320E0AE014F5F94
:100800005F4F0E94F00521E030E0813011F420E0DC
:1008100030E088279927821B930B0F90DF91CF91AF
:10082000089508950895089508950FB6F8940F92C5
:10083000FC01928D0F900FBE81E0911180E0089530
:100840000F931F93CF93DF93EC01042F1A8D4C8DE0
:1008500041110BC088819981892BE9F58C819D819B
:100860000E94EB111D821C8237C050E0011115C09F
:100870008A819B810E94091A2C8D8A819B81820F1B
:10088000911D9B838A832C813D818217930718F1E8
:10089000888199819B838A831EC08E819F810E945B
:1008A000091A8C8D90E09195819591092E813F8157
:1008B000280F391F3F832E8348815981241735071C
:1008C00030F42C813D81820F931F9F838E830230F1
:1008D00011F41111115080E01F5F1A8FDF91CF9139
:1008E0001F910F910895FC01CB01448D4423A1F089
:1008F00050E026813781240F351F3783268364819A
:1009000075812617370720F02081318137832683B0
:10091000668177810C94091A0895EF92FF921F93D4
:10092000CF93DF93EC010FB6F8940F921E8D7C01EC
:1009300081E1E80EF11C11165CF48989882341F0ED
:10094000C7010E94C20E81110E943C101150F3CFCA
:100950008FEF8E8F0F900FBE0FB6F8940F921D8DF4
:100960007E0188E0E80EF11C11165CF4888588236E
:1009700041F0C7010E94C20E81110E943C1011502B
:10098000F3CF8FEF8D8F0F900FBEDF91CF911F911F
:10099000FF90EF900895CF93DF93009709F440C044
:1009A000FC01238D222309F43BC0EC010FB6F8941F
:1009B0000F9240815181838D748D9A01879F200D04
:1009C000311D112435832483128E5383428390E09A
:1009D0000197789F9001799F300D1124CA01820FF1
:1009E000931F978386838FEF858F868F61110CC04D
:1009F0008085882389F0CF0108960E94C20E882343
:100A000059F00E94BD1708C0CF0108960E949C08AB
:100A1000CE0141960E949C080F900FBE81E001C05C
:100A200080E0DF91CF910895FF920F931F93CF93B2
:100A3000DF93811103C0C0E0D0E01BC0F42E162F5D
:100A4000082F869FC001112481960E948302EC0129
:100A5000009789F3111103C09983888303C081969D
:100A6000998388830B8F1C8F61E0CE010E94CB0499
:100A7000F8A2CE01DF91CF911F910F91FF900895C1
:100A8000AF92BF92CF92DF92FF920F931F93CF93BB
:100A9000DF9300D000D01F92CDB7DEB78C016B0181
:100AA0005D834C83F22E80E0580198E0A90EB11CC2
:100AB0000FB6F8940F92F801228D938D291718F034
:100AC000F2E0FF1214C04F2DB601C8010E942004AD
:100AD000F8019189992321F0C80141960E94C20E24
:100AE00081110E94BD170F900FBE81E050C02C8174
:100AF0003D81232B19F40F900FBE48C0811104C013
:100B0000CE0101960E9405100F900FBE0E94E20BCD
:100B10000FB6F8940F92F801858D8F3F09F4158E6A
:100B2000F801868D8F3F09F4168E0F900FBEBE011F
:100B30006C5F7F4FCE0101960E941010811121C081
:100B40000FB6F8940F92F801928D838D0F900FBE1F
:100B5000981311C06C817D81C5010E946E0EC80181
:100B60000E948D040E94010D882311F081E0A0CF26
:100B70000E94BD17FBCFC8010E948D040E94010D89
:100B8000F5CFC8010E948D040E94010D80E00F90F6
:100B90000F900F900F900F90DF91CF911F910F91B9
:100BA000FF90DF90CF90BF90AF900895CF93DF93E9
:100BB000482F60E081E00E941405EC01009761F08D
:100BC0001D821C82198218821E8220E040E050E0C3
:100BD00060E070E00E944005CE01DF91CF91089562
:100BE000EF92FF921F93CF93DF93EC019A8D8B8D41
:100BF000981710F02230E9F47A011E8D8A8D422F69
:100C0000CE010E9420041F3F81F48989882379F056
:100C1000CE0141960E94C20E882349F0E114F104EE
:100C200031F081E0F701808305C01F5F1E8F81E0F6
:100C300001C080E0DF91CF911F91FF90EF90089568
:100C4000CF93DF93FC01928D838D9817C0F4868D2E
:100C50009F5F928F8F3F79F48189882371F0EB0138
:100C6000CF0141960E94C20E882339F0209729F0C7
:100C700081E0888305C08F5F868F81E001C080E0BE
:100C8000DF91CF910895AF92BF92CF92DF92FF9202
:100C90000F931F93CF93DF9300D000D01F92CDB757
:100CA000DEB78C016B015D834C8380E0580191E1DC
:100CB000A90EB11C0FB6F8940F92F801F28CFF2028
:100CC000A9F0B601C8010E947304FA94F801F28EEB
:100CD0008085882339F0C80108960E94C20E8111D0
:100CE0000E94BD170F900FBE81E050C02C813D8146
:100CF000232B19F40F900FBE48C0811104C0CE0100
:100D000001960E9405100F900FBE0E94E20B0FB6D5
:100D1000F8940F92F801858D8F3F09F4158EF80134
:100D2000868D8F3F09F4168E0F900FBEBE016C5F4B
:100D30007F4FCE0101960E94101081111CC0C80186
:100D40000E941504882389F06C817D81C5010E9471
:100D50006E0EC8010E948D040E94010D882311F0BF
:100D600081E0A8CF0E94BD17FBCFC8010E948D046F
:100D70000E94010DF5CFC8010E948D040E94010D53
:100D8000C8010E941504882359F380E00F900F904A
:100D90000F900F900F90DF91CF911F910F91FF90C7
:100DA000DF90CF90BF90AF900895CF92DF92FF92E7
:100DB0000F931F93CF93DF9300D000D01F92CDB736
:100DC000DEB78C017D836C83F12C90E0680181E1BA
:100DD000C80ED11C0FB6F8940F92D8015A968C9178
:100DE0005A978823E9F081505A968C935A978D919F
:100DF0009C91892B29F40E944A13F80195838483DE
:100E0000D80118968C91882339F0C80108960E9461
:100E1000C20E81110E94BD170F900FBE81E07AC0F3
:100E20002C813D81232B09F472C0911104C0CE01A5
:100E300001960E9405100F900FBE0E94E20B0FB6A4
:100E4000F8940F92F801858D8F3F09F4158ED80123
:100E50005E968C915E978F3F11F45E961C920F9078
:100E60000FBEBE016C5F7F4FCE0101960E94101035
:100E700081112BC0C8010E941504882301F1F801DB
:100E800080819181892B51F40FB6F8940F9284815F
:100E900095810E946F11F82E0F900FBE6C817D819D
:100EA000C6010E946E0EC8010E948D040E94010DB1
:100EB000882311F091E08ECF0E94BD17FBCFC801AF
:100EC0000E948D040E94010DF5CFC8010E948D047F
:100ED0000E94010DC8010E941504882359F3FF20C8
:100EE000C1F00FB6F8940F92F8018189882339F088
:100EF0000688F789E02D808164E0681B01C060E00E
:100F0000D80114968D919C9115970E943D120F90D7
:100F10000FBE80E00F900F900F900F900F90DF9119
:100F2000CF911F910F91FF90DF90CF900895CF92B6
:100F3000DF92EF92FF920F931F93CF93DF9300D036
:100F400000D01F92CDB7DEB78C017B015D834C834F
:100F500080E0680191E1C90ED11C0FB6F8940F92A0
:100F6000F801928D9923B9F0C680D780B701C801E6
:100F70000E947304F801D782C6828189882339F0E0
:100F8000C80141960E94C20E81110E94BD170F90A8
:100F90000FBE81E050C02C813D81232B19F40F90AE
:100FA0000FBE48C0811104C0CE0101960E940510F9
:100FB0000F900FBE0E94E20B0FB6F8940F92F8014B
:100FC000858D8F3F09F4158EF801868D8F3F09F4CA
:100FD000168E0F900FBEBE016C5F7F4FCE01019643
:100FE0000E94101081111CC0C8010E9415048823A2
:100FF00089F06C817D81C6010E946E0EC8010E943D
:101000008D040E94010D882311F081E0A6CF0E947B
:10101000BD17FBCFC8010E948D040E94010DF5CFC2
:10102000C8010E948D040E94010DC8010E94150490
:10103000882359F380E00F900F900F900F900F903E
:10104000DF91CF911F910F91FF90EF90DF90CF90A4
:101050000895EF92FF920F931F93CF93DF93FC01BC
:10106000028D0023E9F07A01EC01158D0E947304D2
:1010700001500A8F1F3F81F48885882379F0CE01C3
:1010800008960E94C20E882349F0E114F10431F061
:1010900081E0F701808305C01F5F1D8F81E001C0E3
:1010A00080E0DF91CF911F910F91FF90EF90089515
:1010B0000F931F93CF93DF93FC01228D222349F0DE
:1010C000EC01068117810E9473041F830E8381E067
:1010D00001C080E0DF91CF911F910F9108950FB66D
:1010E000F8940F92FC01828D0F900FBE08950FB6F9
:1010F000F8940F92FC01228D838D821B0F900FBEFE
:101100000895FC01828D08950C949202FC01878D54
:101110000895FC01678F0895FC0180A10895FC01EA
:10112000928D81E0911180E00895FC01928D81E023
:10113000238D291380E00895FC0103969283818317
:101140002FEF3FEF348323839683858390878783B4
:1011500010820895FC01118610860895CF93DF93C5
:101160009C01FB01DC011196CD91DC911297D38398
:10117000C2838C819D81958384838C819D81DC01D8
:1011800013967C936E9312977D836C8331872087AF
:10119000F90180818F5F8083DF91CF9108950F9354
:1011A0001F93CF93DF938C01FB01808191818F3F4F
:1011B0002FEF920721F4E801AF81B8850EC0D80166
:1011C000139612962D913C911397E901488159810C
:1011D0008417950710F0D901F4CF12968D919C9148
:1011E000139793838283EC01FD83EC83B583A483FF
:1011F0001396FC93EE93129711870087F801808174
:101200008F5F8083DF91CF911F910F910895CF93CE
:10121000DF93FC01A085B185828193812481358192
:10122000EC013D832C83C481D5819B838A831196F5
:101230008D919C911297E817F90721F41296DC938F
:10124000CE931197118610868C9181508C938C913E
:10125000DF91CF910895FC016083319770833197BE
:101260001082319720E8208331971082779740834E
:10127000319750838397089586E08CBF8DE083BFBC
:1012800089B7826089BFA0915A02B0915B02CD916B
:10129000CDBFDD91DEBFFF91EF91DF91CF91BF9187
:1012A000AF919F918F917F916F915F914F913F91FE
:1012B0002F911F910F91FF90EF90DF90CF90BF90F3
:1012C000AF909F908F907F906F905F904F903F90E6
:1012D0002F901F900F900FBE0F90089581E00895FA
:1012E0000895E0918002F09181028081811103C014
:1012F0008FEF9FEF09C0E0918002F091810205809D
:10130000F681E02D808191819093600280935F024D
:1013100008950F931F93CF93DF93EC010091680220
:101320001091690280915A0290915B0202960E948C
:101330000709C00FD11FE0915A02F0915B02D383DD
:10134000C28360915A0270915B02C017D10760F4AA
:1013500080917E0290917F026E5F7F4FDF91CF91EF
:101360001F910F910C94CF0880918002909181027F
:101370006E5F7F4F0E94CF0880915F029091600264
:10138000C817D90720F4D0936002C0935F02DF91A1
:10139000CF911F910F91089581EE91E00E94A100DD
:1013A00080916B02882309F10FB6F8940F92E091B7
:1013B0007102F0917202C681D781CE0102960E941D
:1013C000070980916A02815080936A0280916B02C2
:1013D000815080936B020F900FBE8F89988D0E9471
:1013E0009202CE010E949202DBCF80919402823061
:1013F000B8F20E94BD17D4CF5F926F927F928F9206
:101400009F92AF92BF92CF92DF92EF92FF920F9393
:101410001F93CF93DF933C016B015A014901502E7A
:10142000CA010E9483028C01892B09F4F8C08AE268
:1014300090E00E948302EC01892BC9F0188F0F8B7A
:10144000A50165EA70E0C8010E94121A81E0A81A9D
:10145000B1088F89988DA80EB91EC114D104C9F0A6
:10146000BE01675E7F4FF601C601089607C0C8013E
:101470000E949202D4C0E817F90749F09F014191F8
:10148000DB014D93BD01D9012C912111F4CF18A29C
:1014900001C0198E052D043008F003E00E8B0BA35C
:1014A0001CA26E01B2E0CB0ED11CC6010E94AA089C
:1014B000CE010C960E94AA08D987C88784E090E0E4
:1014C000801B91099D878C87DB8BCA8B84E0FE0192
:1014D000B596DF011D928A95E9F719A6A401B3011B
:1014E000C5010E942B0999838883E114F10419F046
:1014F000F701D183C0830FB6F8940F9280916A02EE
:101500008F5F80936A0280915A0290915B02892BCF
:10151000A9F5D0935B02C0935A0280916A02813090
:10152000E9F584E992E00E949C088DE992E00E942E
:101530009C0886EA92E00E949C088FEA92E00E9452
:101540009C088BE892E00E949C0882E892E00E944E
:101550009C0885E792E00E949C088CE692E00E943D
:101560009C088BE892E0909381028093800282E84D
:1015700092E090937F0280937E0210C08091660279
:1015800081110CC0E0915A02F0915B0296898E891C
:10159000891720F0D0935B02C0935A0280916102B8
:1015A0008F5F8093610289A3EE89809167028E1715
:1015B00010F4E093670289E08E9FF0011124EC564D
:1015C000FD4F0180F281E02DFD83EC832481358184
:1015D0003F832E83A481B5811396DC92CE9212971D
:1015E000D582C482EE898E9FF0011124EC56FD4F06
:1015F000FB87EA8780818F5F80830F900FBE809189
:101600006602882351F0E0915A02F0915B029689BC
:101610008E89981710F40E94BD1781E001C08FEFEA
:10162000DF91CF911F910F91FF90EF90DF90CF90BE
:10163000BF90AF909F908F907F906F905F90089534
:101640000F931F93CF93DF93EC010FB6F8940F9293
:10165000892B21F4C0915A02D0915B028E010E5F5A
:101660001F4FC8010E9407098C899D89892B21F091
:10167000CE010C960E940709809161028F5F8093D2
:10168000610280915A0290915B02C817D90759F400
:10169000B8018CE692E00E94AE0880916B028F5FE9
:1016A00080936B0207C080916A02815080936A0226
:1016B0000E9471090F900FBE80915A0290915B02B7
:1016C000C817D90739F08F89988D0E949202CE01F0
:1016D0000E94920280916602882349F080915A020A
:1016E00090915B02C817D90711F40E94BD17DF91D2
:1016F000CF911F910F91089520915A0230915B0272
:1017000082179307F9F00FB6F8940F92FC018285C7
:101710009385409180025091810220917E02309108
:101720007F020F900FBE8417950779F082179307F9
:1017300061F0F2E08C369F0759F0892B49F081E087
:1017400090E0089580E090E0089582E090E00895B0
:1017500084E090E00895EF92FF920F938DE5E82EDC
:1017600082E0F82E00E020E030E042E350E067EF56
:1017700071E08CEC99E00E94FC098130C1F4F8948E
:101780002FEF3FEF3093600220935F028093660259
:1017900010926902109268020E943C09882319F095
:1017A0008CEF91E002C080E292E00E94A100809163
:1017B00073000F91FF90EF900895F89410926602D5
:1017C0000C94700980915C028F5F80935C02089595
:1017D0000FB6F8940F9280916802909169020F9071
:1017E0000FBE0895809168029091690208958091DA
:1017F0006A020895009721F480915A0290915B0249
:1018000049960895CF92DF92EF92FF920F931F9324
:10181000CF93DF9380915C028111E0C0C091680298
:10182000D09169026E018FEFC81AD80AD09269026E
:10183000C0926802C114D104B9F4809180029091E1
:10184000810220917E0230917F02309381022093A9
:10185000800290937F0280937E02809162028F5F6C
:10186000809362020E94710980915F0290916002F0
:10187000C816D90608F49CC080E069E0E0918002B7
:10188000F09181029081911103C02FEF3FEF0FC0C3
:10189000E0918002F09181020580F681E02D0680C2
:1018A000F781E02D22813381C216D30628F43093CC
:1018B000600220935F027DC0C285D385248135817B
:1018C00046815781D90115965C934E9314974681B2
:1018D0005781DA0113963C932E9312979F012E5F46
:1018E0003F4F09811A810217130711F45A83498364
:1018F00013861286988191509883A489B589109790
:10190000F9F04685578500891189EA011D830C830A
:1019100000891189E8015B834A831196ED90FC9060
:101920001297AF01445F5F4FE416F50621F412965B
:101930001C930E931197158A148A9C9191509C9335
:10194000A689909167029A1710F4A09367026A9F84
:10195000D0011124AC56BD4F11960D90BC91A02D15
:10196000B583A48314964D915C9115975783468354
:1019700014964D915C911597EA013B832A83159645
:101980003C932E9314972689629FD0011124AC5664
:10199000BD4FB387A2879C919F5F9C93E0915A02B1
:1019A000F0915B029689291708F468CF81E066CF31
:1019B00080E0E0915A02F0915B02E689D9E0ED9F68
:1019C000F0011124EC56FD4F9081923008F081E037
:1019D00090916302992361F081E00AC080916402D2
:1019E000909165020196909365028093640280E075
:1019F000DF91CF911F910F91FF90EF90DF90CF90EB
:101A00000895EF92FF920F931F93CF93DF930FB63A
:101A1000F8940F9280915C02815080935C028091D7
:101A20005C02882311F080E0AFC080916A028823B5
:101A3000D1F3E0907A02F0907B02E0E0F0E039E050
:101A400041E080917502882309F480C0D701169681
:101A5000ED91FC911797A489B58966857785808972
:101A60009189EB019D838C8380899189EC017B8333
:101A70006A83BF01645F7F4F11960D911C9112978D
:101A80000617170721F412969C938E931197158AC7
:101A9000148A8C9181508C93A285B3858481958121
:101AA00066817781EC017D836C8366817781EB01B0
:101AB0009B838A83CF01029611960D911C911297F8
:101AC0000817190721F412967C936E9311971386C9
:101AD00012862C9121502C93A689209167022A17F7
:101AE00010F4A09367023A9FD0011124AC56BD4F69
:101AF00011960D90BC91A02DB583A48314966D9181
:101B00007C9115977783668314966D917C911597D8
:101B1000EB019B838A8315969C938E9314979689E9
:101B2000399FD0011124AC56BD4FB387A2878C9149
:101B30008F5F8C93A0915A02B0915B0256968C9164
:101B4000981708F47ECF409363027BCFEF2B11F000
:101B50000E947109C0916402D0916502209761F0E2
:101B600011E00E94020C8111109363022197C9F7C2
:101B7000109265021092640280916302882309F436
:101B800052CF0E94BD1781E00F900FBEDF91CF9121
:101B90001F910F91FF90EF9008950F931F93CF9394
:101BA000DF938C01EB010E94E20B209168023091DF
:101BB0006902F80140815181CA018C0F9D1F2417D1
:101BC000350728F48417950748F4C1E004C0C1E044
:101BD0008417950720F02817390708F0C0E0F801AE
:101BE00091838083CC2321F0821B930B0E9489096F
:101BF0000E94010D811102C00E94BD178C2FDF9140
:101C0000CF911F910F910895CF93DF93EC01892B12
:101C100019F40E94BD1709C00E94E20BCE010E9478
:101C200089090E94010D8823A1F3DF91CF910895C6
:101C3000CF93DF93EC010E94E20B809164029091BC
:101C40006502C80FD91FD0936502C0936402DF916B
:101C5000CF910C94010D80915C02882321F081E0EA
:101C6000809363020895109263028091670269E095
:101C7000482F50E0649F9001659F300D1124F901B9
:101C8000EC56FD4F9081911102C08150F1CFA1819E
:101C9000B28112960D90BC91A02DB283A1832956DA
:101CA0003D4FA217B30731F412962D913C91139733
:101CB0003283218399E0949FF001959FF00D1124C8
:101CC000EC56FD4F0180F281E02D26813781309363
:101CD0005B0220935A02809367020895CF93DF93AB
:101CE000EB0160915A0270915B02645F7F4F0E942A
:101CF000CF08CE01DF91CF910C948909CF93DF9368
:101D0000FC01A0915A02B0915B0270681D967C9311
:101D10006E931C97A181B281C0915A02D0915B024F
:101D2000BF87AE87C0915A02D0915B0214968D9105
:101D30009C911597998B888B20915A0230915B0268
:101D40001496CD91DC911597245F3F4F3B832A83F6
:101D500020915A0230915B02245F3F4F15963C93CD
:101D60002E931497A0915A02B0915B025596FC9362
:101D7000EE93549790819F5F9083CA01DF91CF913A
:101D80000C948909CF93DF93DC011596ED91FC91BA
:101D900016970680F781E02DA489B58986859785F9
:101DA00020893189EC013D832C83C089D1899B83B3
:101DB0008A83CF010C9611962D913C91129728178A
:101DC000390721F41296DC93CE931197158A148A61
:101DD0002C9121502C9320915C0221114FC0A2859F
:101DE000B3858481958126813781EC013D832C83E5
:101DF000C681D7819B838A839F012E5F3F4F1196B7
:101E00008D919C9112978217930721F41296DC937F
:101E1000CE931197138612868C9181508C93A6894C
:101E2000809167028A1710F4A093670289E08A9F65
:101E3000D0011124AC56BD4F11960D90BC91A02D30
:101E4000B583A48314964D915C911597578346836F
:101E50001496CD91DC9115973B832A8315963C937C
:101E60002E931497A6898A9FD0011124AC56BD4F9A
:101E7000B387A2878C918F5F8C931FC0A09176024D
:101E8000B0917702B787A68714962D913C9115974C
:101E9000318B208B1496CD91DC9115979B838A838F
:101EA00015969C938E93149785E792E0958B848B7F
:101EB000809175028F5F80937502A0915A02B09154
:101EC0005B02968956968C91891720F481E0809365
:101ED000630201C080E0DF91CF910895CF93DF933B
:101EE000DC01706811967C936E931696ED91FC91CF
:101EF000179718964D915C91199712962D913C91D8
:101F0000139714968D919C911597E9019D838C836D
:101F100014968D919C911597EC013B832A83EA01DD
:101F200029813A81A217B30711F49A8389831996FC
:101F30001C921E921897DA018C9181508C93A28585
:101F4000B3858481958126813781EC013D832C8383
:101F5000C681D7819B838A83CF01029611962D91EA
:101F60003C9112972817390721F41296DC93CE93EF
:101F70001197138612862C9121502C93C68920919B
:101F800067022C1710F4C093670249E04C9FE001F0
:101F90001124CC56DD4F0980DA81C02DD583C4834E
:101FA0002C813D81378326832C813D81D901139675
:101FB0009C938E9312979D838C839689499FD00121
:101FC0001124AC56BD4FB387A2878C918F5F8C9341
:101FD000E0915A02F0915B028689891718F481E03A
:101FE00080936302DF91CF9108950FB6F8940F921A
:101FF00020916202FC0120832091680230916902E5
:10200000328321830F900FBE089520916202FC015C
:1020100020832091680230916902328321830895E0
:102020000FB6F8940F922091680230916902DC019A
:1020300011964D915C911297E0916202FC91FE170E
:1020400041F02417350728F0FB011182108281E04E
:1020500010C0241B350BDB014D915C912417350713
:1020600098F7FB01421B530B518340830E940510DC
:1020700080E00F900FBE089581E080936302089581
:10208000009719F0FC0182A1089580E0089500975F
:1020900011F0FC0162A30895FF920F931F93CF9359
:1020A000DF938C01EB01F42E892B21F400915A026D
:1020B00010915B0219830883C80149969B838A8328
:1020C000D80156968C9156978F8357968D919C91F7
:1020D00058979E878D8791968C9191978C83939634
:1020E0008C91888719861A861B861C8625303105B7
:1020F00069F080915A0290915B020817190719F450
:102100001E821D8208C03E832D8305C0C8010E9427
:102110007C0B9E838D83FF2091F0D8015796ED9123
:10212000FC91589780E090E0DC012191253A21F460
:102130000196A11DB11DF9CF988B8F8702C0188A17
:102140001F86DF91CF911F910F91FF9008957F928D
:102150008F929F92AF92BF92CF92DF92EF92FF92B7
:102160000F931F93CF93DF93EB0128812223D1F1AB
:10217000E981FA81228133813A8329836B0163E00B
:10218000C60ED11C2C153D0529F4F60122813381A0
:102190003A8329838A017C01E981FA8186809780CC
:1021A000712CE981FA81828193819A838983C8168F
:1021B000D90621F48D819E819A838983E981FA81F0
:1021C000A680B780B701F1E17F9E600D711D1124DB
:1021D000980141E0C5010E944C1073948A149B043D
:1021E00001F701C0712C872DDF91CF911F910F91C5
:1021F000FF90EF90DF90CF90BF90AF909F908F9027
:102200007F900895DF92EF92FF920F931F93CF93E9
:10221000DF938C01C62F7A010E94E20B80916A0243
:10222000C81708F44BC0D4E0C0E089E0D82ED150E4
:10223000DD9EB00111246C567D4F41E050E0C80195
:1022400021E1C29F800D911D11240E94A710C80F8B
:10225000D111EDCF609180027091810242E050E097
:10226000C801E1E1CE9F800D911D11240E94A710AD
:10227000C80F60917E0270917F0242E050E0C80179
:10228000F1E1CF9F800D911D11240E94A710C80F6E
:1022900044E050E06CE672E0C80121E1C29F800D8D
:1022A000911D11240E94A710C80FE114F10439F008
:1022B000F701108211821282138201C0C0E00E94D5
:1022C000010D8C2FDF91CF911F910F91FF90EF9017
:1022D000DF90089580915A0290915B0208950F93C8
:1022E0001F93CF93DF93FC01892B09F46EC086897D
:1022F000A0915A02B0915B0256969C91891708F002
:102300005AC02485358537FD0CC0A0915A02B09182
:102310005B0256969C9124E030E0291B31093587F9
:10232000248729E0829FC00111248C569D4F22856D
:10233000338528173907B1F5EF018F010E5F1F4F65
:10234000C8010E940709E0915A02F0915B02E689F8
:10235000EE8B809167028E1710F4E093670289E09C
:102360008E9FF0011124EC56FD4F0180F281E02D8B
:10237000FD83EC83248135813F832E83A481B58145
:1023800013961C930E93129715830483EE898E9FE8
:10239000F0011124EC56FD4FFB87EA8780818F5FA7
:1023A000808307C0A0915A02B0915B0256968C912F
:1023B000868B81E00BC0A0915A02B0915B0281E054
:1023C00023A156969C91291708F080E0DF91CF91C8
:1023D0001F910F9108950F931F93CF93DF93EC01FB
:1023E000892B11F480E044C08CA181508CA32E89EC
:1023F0009BA12917B9F38111F5CF8E010E5F1F4FF5
:10240000C8010E9407098BA18E8B482F50E024E061
:1024100030E0241B350B3D872C879091670298177D
:1024200010F48093670289E0849FF001859FF00D8E
:102430001124EC56FD4F0180F281E02DFD83EC83E9
:10244000248135813F832E83A481B58113961C930B
:102450000E93129715830483EE898E9FF001112449
:10246000EC56FD4FFB87EA8780818F5F808381E098
:10247000DF91CF911F910F9108950F931F93CF93E9
:10248000DF93FC01892B09F452C093A1961708F43D
:10249000962F8689891709F44AC024A1213009F0B2
:1024A00046C0968B2485358537FD06C024E030E094
:1024B000291B31093587248729E0829FC001112417
:1024C0008C569D4F228533852817390781F5EF01FA
:1024D0008F010E5F1F4FC8010E940709EE8980918E
:1024E00067028E1710F4E093670289E08E9FF00177
:1024F0001124EC56FD4F0180F281E02DFD83EC8329
:10250000248135813F832E83A481B58113961C934A
:102510000E93129715830483EE898E9FF001112488
:10252000EC56FD4FFB87EA8780818F5F8083DF91C8
:10253000CF911F910F9108958F929F92AF92BF926A
:10254000CF92DF92EF92FF920F931F93CF93DF937F
:10255000EC011882F0906A0280916A0221E1829F68
:10256000C00111240E9483028C01009709F46EC0FF
:1025700040E050E06F2D0E940211A82E6801B12C9E
:1025800080E2982E93E4E92E92E0F92EBA1409F431
:102590004EC0F601858196818530910528F4FC01B5
:1025A000E851FF4F808001C0812CF6016281738168
:1025B000CE010E94191AFE0101900020E9F731971F
:1025C000CF018C1B9D0BFE01E80FF91F8730910591
:1025D00018F491920196FACFC80FD91F1882F6010C
:1025E00084811F928F9380898F9387858F938781B2
:1025F0001F928F93882D082C000C990B9F938F921C
:10260000FF92EF92DF93CF930E94361A0990002039
:10261000E9F72197B39481E1C80ED11CEDB7FEB75D
:102620003C960FB6F894FEBF0FBEEDBFAFCFC8010A
:10263000DF91CF911F910F91FF90EF90DF90CF909E
:10264000BF90AF909F908F900C949202DF91CF91AA
:102650001F910F91FF90EF90DF90CF90BF90AF90C0
:102660009F908F900895E0915A02F0915B028485CB
:102670009585E0915A02F0915B02A0915A02B091C7
:102680005B0256964C9124E030E0241B31093587DB
:102690002487089580915A0290915B02892B39F02A
:1026A000E0915A02F0915B0284A18F5F84A3809134
:1026B0005A0290915B020895CF92DF92EF92FF92BF
:1026C0000F931F93CF93DF93F62E0FB6F8940F92CC
:1026D000E0915A02F0915B02C82FD0E08E01000F0A
:1026E000111F000F111FE00FF11F85A196A1A7A1D7
:1026F000B0A5892B8A2B8B2B81F4E0915A02F091A3
:102700005B02EC0FFD1F81E081A74115510529F007
:10271000CA010E9489090E94BD170F900FBE0FB613
:10272000F8940F92E0915A02F0915B02E00FF11FD2
:1027300065A176A187A190A5611571058105910517
:10274000C9F020915A0230915B02F901E00FF11FAC
:10275000FF2029F015A216A217A210A60BC06B012C
:102760007C0121E0C21AD108E108F108C5A2D6A275
:10277000E7A2F0A620915A0230915B02C20FD31F4C
:1027800019A60F900FBEDF91CF911F910F91FF906F
:10279000EF90DF90CF9008958F929F92AF92BF926B
:1027A000CF92DF92EF92FF920F931F93CF93DF931D
:1027B000480159010FB6F8940F92E0915A02F09136
:1027C0005B02C82FD0E0EC0FFD1F81A5823059F1CC
:1027D000E0915A02F0915B02CE01880F991F880F99
:1027E000991FE80FF91F85A196A1A7A1B0A5409553
:1027F000509560957095482359236A237B2345A300
:1028000056A367A370A7E0915A02F0915B02EC0F08
:10281000FD1F81E081A7C114D10429F0C6010E94E7
:1028200089090E94BD170F900FBE0FB6F8940F9242
:10283000E114F104A1F0E0915A02F0915B02CE01A3
:10284000880F991F880F991FE80FF91F85A196A17E
:10285000A7A1B0A5F70180839183A283B383E09100
:102860005A02F0915B02EC0FFD1F81A58230E9F462
:10287000E0915A02F0915B02CE01880F991F880FF8
:10288000991FE80FF91F85A196A1A7A1B0A5809473
:102890009094A094B09488229922AA22BB2285A267
:1028A00096A2A7A2B0A681E001C080E020915A02C2
:1028B00030915B02C20FD31F19A60F900FBEDF919C
:1028C000CF911F910F91FF90EF90DF90CF90BF902D
:1028D000AF909F908F9008958F929F92AF92BF92EA
:1028E000CF92DF92EF92FF920F931F93CF93DF93DC
:1028F000DC010FB6F8940F9270E0E114F10481F05E
:10290000FB01EE0FFF1FEE0FFF1FE80FF91F85A061
:1029100096A0A7A0B0A4E70188829982AA82BB8270
:10292000FD01E60FF71F81A592E091A70230110586
:10293000E9F0A8F401301105D9F5660F771F660F8D
:10294000771FFD01E60FF71FC5A0D6A0E7A0F0A4F2
:10295000BA01A9014C295D296E297F2916C00330CF
:102960001105D9F004301105A9F022C0660F771FB8
:10297000660F771FFD01E60FF71F45A156A167A15E
:1029800070A54F5F5F4F6F4F7F4F45A356A367A35F
:1029900070A70EC0823009F471C0660F771F660FF2
:1029A000771FFD01E60FF71F25A336A347A350A706
:1029B000813009F061C01A96ED91FC911B97149635
:1029C0008D919C91159716962D913C911797EC013E
:1029D0003D832C831696CD91DC9117979B838A8338
:1029E0009D012E5F3F4F818192818217930711F4E1
:1029F000D283C1831B961C921E921A9780818150AC
:102A000080835696CC915697809167028C1710F46C
:102A1000C093670249E04C9FE0011124CC56DD4F82
:102A20000980DA81C02D1596DC93CE9314978C81A2
:102A30009D8117969C938E9316978C819D81FC01A6
:102A4000338322833D832C8356969C915697499FCE
:102A5000F0011124EC56FD4F1B96FC93EE931A9750
:102A600080818F5F8083E0915A02F0915B028689BA
:102A7000891710F40E94BD1781E001C080E00F901B
:102A80000FBEDF91CF911F910F91FF90EF90DF90DC
:102A9000CF90BF90AF909F908F9008958F929F920C
:102AA000AF92BF92CF92DF92EF92FF920F931F935C
:102AB000CF93DF93DC0170E0E114F10481F0FB01BE
:102AC000EE0FFF1FEE0FFF1FE80FF91F85A096A066
:102AD000A7A0B0A4E70188829982AA82BB82FD01E7
:102AE000E60FF71F81A592E091A702301105E9F0EA
:102AF000A8F401301105D9F5660F771F660F771F0F
:102B0000FD01E60FF71F85A096A0A7A0B0A4BA010B
:102B1000A901482959296A297B2916C003301105C2
:102B2000D9F004301105A9F022C0660F771F660F97
:102B3000771FFD01E60FF71F45A156A167A170A5FC
:102B40004F5F5F4F6F4F7F4F45A356A367A370A79B
:102B50000EC0823009F4A0C0660F771F660F771F82
:102B6000FD01E60FF71F25A336A347A350A7813029
:102B700011F081E092C080915C02811158C01A96D8
:102B8000ED91FC911B9714968D919C91159716963B
:102B90002D913C911797EC013D832C831696CD9196
:102BA000DC9117979B838A839D012E5F3F4F818124
:102BB00092818217930711F4D283C1831B961C92D2
:102BC0001E921A978081815080835696EC91569779
:102BD000809167028E1710F4E093670289E08E9F60
:102BE000F0011124EC56FD4F0180F281E02D159685
:102BF000FC93EE9314974481558117965C934E9302
:102C00001697C481D5813B832A83358324835696C6
:102C1000EC9156978E9FF0011124EC56FD4F1B96B8
:102C2000FC93EE931A9780818F5F808321C0E0919F
:102C30007602F09177021F96FC93EE931E978481A3
:102C4000958151969C938E935097C481D581CD01E7
:102C50000C969B838A839583848385E792E05596BF
:102C60009C938E935497809175028F5F8093750229
:102C7000E0915A02F0915B0256969C9186898917E1
:102C800008F077CFC114D10419F081E0F6018083F8
:102C900081E08093630201C080E0DF91CF911F91BA
:102CA0000F91FF90EF90DF90CF90BF90AF909F90EB
:102CB0008F9008950F931F93CF93DF93FC01A62F5E
:102CC000B0E0EC01CA0FDB1F89A592E099A7AA0F1B
:102CD000BB1FAA0FBB1FAE0FBF1F95960D911D9175
:102CE0002D913C9198970F5F1F4F2F4F3F4F959617
:102CF0000D931D932D933C939897813009F086C0D6
:102D000080915C0281114FC0A285B3858481958139
:102D100026813781EC013D832C83C681D7819B833B
:102D20008A839F012E5F3F4F11968D919C91129740
:102D30008217930721F41296DC93CE931197138692
:102D400012868C9181508C93A689809167028A1794
:102D500010F4A093670289E08A9FD0011124AC5639
:102D6000BD4F11960D90BC91A02DB583A4831496F0
:102D70006D917C911597778366831496CD91DC9144
:102D800015973B832A8315963C932E931497A68917
:102D90008A9FD0011124AC56BD4FB387A2878C9176
:102DA0008F5F8C9321C0A0917602B0917702B78794
:102DB000A68714968D919C911597918B808B149674
:102DC000CD91DC911597CF010C969B838A83159644
:102DD0009C938E93149785E792E0958B848B8091DA
:102DE00075028F5F80937502A0915A02B0915B02C9
:102DF000968956968C91891748F44115510519F01A
:102E000081E0FA01808381E080936302DF91CF91BA
:102E10001F910F910895009721F480915A0290918B
:102E20005B020FB6F8940F92FC01E60FF11D81A52D
:102E3000823019F411A681E001C080E00F900FBE2E
:102E40000895CF92DF92EF92FF920F931F93009716
:102E500021F480915A0290915B020FB6F8940F9280
:102E6000FC0174E0679FE00DF11D112465A176A1BE
:102E700087A190A5C5A0D6A0E7A0F0A489019A01DA
:102E800000951095209530950C211D212E213F2174
:102E900005A316A327A330A70F900FBE1F910F9174
:102EA000FF90EF90DF90CF900895CF93DF93CDB751
:102EB000DEB72C970FB6F894DEBF0FBECDBF0E94D1
:102EC000580261E070E081E090E00E94250183E516
:102ED00091E09A83898304E010E01A8709871886B5
:102EE0001F8282E3E82EF12CFC86EB86809158024B
:102EF000909159029C838B8381E392E09E838D8322
:102F0000CE0101960E94810387E591E09A8389832F
:102F10001A87098718861F82FC86EB8680915602E5
:102F2000909157029C838B839CE3E92E92E0F92ECB
:102F3000FE82ED82CE0101960E9481038BE591E035
:102F40009A8389831A87098718861F8280E094E014
:102F50009C878B8780915402909155029C838B8330
:102F6000FE82ED82CE0101960E9481030E94A7039A
:102F700084E691E00E94A100FBCF0F920FB6F89477
:102F80000F921F9211242F923F924F925F926F9255
:102F90007F928F929F92AF92BF92CF92DF92EF92E9
:102FA000FF920F931F932F933F934F935F936F93D2
:102FB0007F938F939F93AF93BF93CF93DF93EF93C1
:102FC000FF93A0915A02B0915B020DB60D920EB61E
:102FD0000D920E942B0EA0915A02B0915B02CD91EE
:102FE000CDBFDD91DEBFFF91EF91DF91CF91BF911A
:102FF000AF919F918F917F916F915F914F913F9191
:103000002F911F910F91FF90EF90DF90CF90BF9085
:10301000AF909F908F907F906F905F904F903F9078
:103020002F901F900F900FBE0F9008950F920FB624
:10303000F8940F921F9211242F923F924F925F9219
:103040006F927F928F929F92AF92BF92CF92DF92B8
:10305000EF92FF920F931F932F933F934F935F93A2
:103060006F937F938F939F93AF93BF93CF93DF9390
:10307000EF93FF93A0915A02B0915B020DB60D92AF
:103080000EB60D920E942B0EA0915A02B0915B02D7
:10309000CD91CDBFDD91DEBFFF91EF91DF91CF915B
:1030A000BF91AF919F918F917F916F915F914F9160
:1030B0003F912F911F910F91FF90EF90DF90CF9054
:1030C000BF90AF909F908F907F906F905F904F9048
:1030D0003F902F901F900F900FBE0F9018950F925A
:1030E0000FB6F8940F921F9211242F923F924F9295
:1030F0005F926F927F928F929F92AF92BF92CF9288
:10310000DF92EF92FF920F931F932F933F934F9372
:103110005F936F937F938F939F93AF93BF93CF935F
:10312000DF93EF93FF93A0915A02B0915B020DB62B
:103130000D920EB60D920E94020C81110E942B0E70
:10314000A0915A02B0915B02CD91CDBFDD91DEBF5F
:10315000FF91EF91DF91CF91BF91AF919F918F91AF
:103160007F916F915F914F913F912F911F910F919F
:10317000FF90EF90DF90CF90BF90AF909F908F9097
:103180007F906F905F904F903F902F901F900F9087
:103190000FBE0F9008950E946F18189587FB082E98
:1031A000062687FD819567FD61950E94DC180EF467
:1031B000919507FC81950895991B79E004C0991FAA
:1031C000961708F0961B881F7A95C9F78095089581
:1031D0000F931F93CF93DF938230910510F482E019
:1031E00090E0E091BC02F091BD0220E030E0A0E070
:1031F000B0E0309719F14081518102811381481765
:103200005907C8F08417950769F4109731F01296A2
:103210000C93129713961C9327C00093BC02109333
:10322000BD0222C02115310519F04217530718F4C9
:103230009A01BD01EF01DF01F801DBCF2115310556
:10324000F9F0281B390B2430310580F48A819B81E9
:103250006115710521F0FB019383828304C0909373
:10326000BD028093BC02FE01329644C0FE01E20F13
:10327000F31F8193919322503109398328833AC0F7
:103280002091BA023091BB02232B41F420917600A9
:10329000309177003093BB022093BA0220917400E2
:1032A000309175002115310541F42DB73EB740919D
:1032B000780050917900241B350BE091BA02F0910F
:1032C000BB02E217F307A0F42E1B3F0B28173907A8
:1032D00078F0AC014E5F5F4F2417350748F04E0F72
:1032E0005F1F5093BB024093BA028193919302C037
:1032F000E0E0F0E0CF01DF91CF911F910F910895B1
:10330000CF93DF93009709F481C0FC0132971382B9
:103310001282A091BC02B091BD02109781F420816D
:103320003181820F931F2091BA023091BB0228177E
:10333000390751F5F093BB02E093BA0267C0ED0183
:1033400020E030E0CE17DF0740F44A815B819E0128
:1033500041155105F1F0EA01F5CFD383C2834081D5
:103360005181840F951FC817D90759F48881998115
:10337000840F951F0296918380838A819B8193831A
:1033800082832115310529F4F093BD02E093BC023C
:103390003DC0E901FB83EA8349915991C40FD51FD0
:1033A000EC17FD0761F480819181840F951F0296CF
:1033B000E90199838883828193819B838A83E0E0FA
:1033C000F0E012968D919C911397009719F0FD01F2
:1033D000DC01F7CF8D919C9111979D012E5F3F4F9E
:1033E000820F931F2091BA023091BB022817390730
:1033F00069F4309729F41092BD021092BC0202C009
:1034000013821282B093BB02A093BA02DF91CF91D4
:103410000895FB01DC0102C001900D924150504023
:10342000D8F70895DC0101C06D9341505040E0F79A
:103430000895FB01DC0101900D920020E1F7089551
:10344000A0E0B0E0E6E2FAE10C94251DAE014B5F8E
:103450005F4FFA0161917191AF018091C00290912B
:10346000C1020E94841AE2E00C94411DAEE0B0E07B
:10347000ECE3FAE10C94231D0D891E8986E08C8310
:103480001A8309838FEF9FE79E838D83AE01475E8A
:103490005F4F6F89788DCE0101960E94841AEF816B
:1034A000F885E00FF11F10822E96E4E00C943F1D8A
:1034B000AEE0B0E0EEE5FAE10C94231D8C01FA01D8
:1034C00086E08C831A83098377FF02C060E070E88E
:1034D000CB0101979E838D83A901BF01CE01019687
:1034E0000E94841A4D815E8157FD0AC02F81388564
:1034F000421753070CF49A01F801E20FF31F1082F0
:103500002E96E4E00C943F1DABE0B0E0EAE8FAE16F
:103510000C94151D6C017B018A01FC011782168237
:10352000838181FFCCC1CE0101963C01F6019381DC
:10353000F70193FD859193FF81917F01882309F421
:10354000BAC1853239F493FD859193FF81917F0152
:10355000853229F4B60190E00E947B1CE7CF912CC4
:10356000212C312CFFE1F315D8F08B3279F038F4AF
:10357000803279F08332A1F4232D20611DC08D3279
:1035800061F0803369F4232D216016C0832D8260A1
:10359000382EE32DE4603E2E2AC0F32DF8601DC0C6
:1035A00037FC2DC020ED280F2A3040F08E32B9F4C0
:1035B00036FC81C1232D2064322E19C036FE06C090
:1035C0008AE0989E200D1124922E11C0EAE02E9ED2
:1035D000200D1124222EF32DF0623F2E08C08C36D0
:1035E00021F4832D8068382E02C0883641F4F7011B
:1035F00093FD859193FF81917F018111B3CF982F26
:103600009F7D9554933028F40C5F1F4F9FE399835F
:103610000DC0833631F0833771F0833509F059C01E
:1036200021C0F801808189830E5F1F4F8824839415
:10363000912C530113C02801F2E04F0E511CF801E8
:10364000A080B18036FE03C0692D70E002C06FEF2C
:103650007FEFC5010E94701C4C018201F32DFF77A2
:103660003F2E16C0280122E0420E511CF801A08016
:10367000B18036FE03C0692D70E002C06FEF7FEFAE
:10368000C5010E94651C4C01F32DF0683F2E82019C
:1036900033FC1BC0822D90E088169906B0F4B60169
:1036A00080E290E00E947B1C2A94F4CFF50137FC65
:1036B000859137FE81915F01B60190E00E947B1CED
:1036C00021102A9421E0821A91088114910471F743
:1036D000E8C0843611F0893641F5F80137FE07C09D
:1036E00060817181828193810C5F1F4F08C060816E
:1036F0007181072E000C880B990B0E5F1F4FF32D65
:10370000FF763F2E97FF09C0909580957095619543
:103710007F4F8F4F9F4FF0683F2E2AE030E0A3018C
:103720000E94B71C882E861845C0853731F4232D9A
:103730002F7EB22E2AE030E025C0932D997FB92E3E
:103740008F36C1F018F4883579F0B5C0803719F09C
:10375000883721F0B0C0E92FE061BE2EB4FE0DC065
:10376000FB2DF460BF2E09C034FE0AC0292F26604D
:10377000B22E06C028E030E005C020E130E002C0F3
:1037800020E132E0F801B7FE07C0608171818281DB
:1037900093810C5F1F4F06C06081718180E090E0D3
:1037A0000E5F1F4FA3010E94B71C882E8618FB2DA9
:1037B000FF773F2E36FE0DC0232D2E7FA22E8914BB
:1037C00058F434FE0BC032FC09C0832D8E7EA82E27
:1037D00005C0B82CA32C03C0B82C01C0B92CA4FE82
:1037E0000FC0FE01E80DF11D8081803321F49A2D78
:1037F000997EA92E09C0A2FE06C0B394B39404C05A
:103800008A2D867809F0B394A3FC11C0A0FE06C0EF
:10381000B21488F4280C922C9B180EC0B21460F4D9
:10382000B60180E290E00E947B1CB394F7CFB21403
:1038300018F42B1802C0982C212CA4FE10C0B6013D
:1038400080E390E00E947B1CA2FE17C0A1FC03C095
:1038500088E790E002C088E590E0B6010CC08A2DB0
:10386000867859F0A1FE02C08BE201C080E2A7FC7D
:103870008DE2B60190E00E947B1C891438F4B601F9
:1038800080E390E00E947B1C9A94F7CF8A94F30126
:10389000E80DF11D8081B60190E00E947B1C811033
:1038A000F5CF222009F442CEB60180E290E00E94DA
:1038B0007B1C2A94F6CFF6018681978102C08FEF98
:1038C0009FEF2B96E2E10C94311DFC0105906150B5
:1038D00070400110D8F7809590958E0F9F1F089526
:1038E000FC016150704001900110D8F780959095CF
:1038F0008E0F9F1F08950F931F93CF93DF93FB01AC
:10390000238121FD03C08FEF9FEF2CC022FF16C043
:1039100046815781248135814217530744F4A081A1
:10392000B1819D012F5F3F4F318320838C9326818E
:1039300037812F5F3F4F3783268314C08B01EC0103
:10394000FB010084F185E02D0995892BE1F6D80172
:1039500016968D919C911797019617969C938E932E
:103960001697CE01DF91CF911F910F910895FA0123
:10397000AA27283051F1203181F1E8946F936E7FAE
:103980006E5F7F4F8F4F9F4FAF4FB1E03ED0B4E09F
:103990003CD0670F781F891F9A1FA11D680F791FE0
:1039A0008A1F911DA11D6A0F711D811D911DA11DF1
:1039B00020D009F468943F912AE0269F1124301901
:1039C000305D3193DEF6CF010895462F4770405D9C
:1039D0004193B3E00FD0C9F7F6CF462F4F70405D4B
:1039E0004A3318F0495D31FD4052419302D0A9F7A6
:1039F000EACFB4E0A6959795879577956795BA95A0
:103A0000C9F700976105710508959B01AC010A2E65
:103A100006945795479537952795BA95C9F7620F3C
:103A2000731F841F951FA01D08952F923F924F92E0
:103A30005F926F927F928F929F92AF92BF92CF923E
:103A4000DF92EF92FF920F931F93CF93DF93CDB747
:103A5000DEB7CA1BDB0B0FB6F894DEBF0FBECDBFBF
:103A600009942A88398848885F846E847D848C8490
:103A70009B84AA84B984C884DF80EE80FD800C8199
:103A80001B81AA81B981CE0FD11D0FB6F894DEBF7C
:0C3A90000FBECDBFED010895F894FFCFEC
:103A9C0001010002000300040005000600070008F5
:103AAC00000800030000C40220003F065B4F666D57
:103ABC007D077F6F777C395E797148414C5F51751A
:103ACC00657565496E69740048414C5F4D75746548
:103ADC0078556E6C6F636B0048414C5F4D75746527
:103AEC00785472794C6F636B0048414C5F4D757420
:103AFC0065784C6F636B0048414C5F4D757465780D
:103B0C0044657374726F790048414C5F4D757465F0
:103B1C0078437265617465005852425344313131B7
:103B2C0031313131313131313131310032323232A6
:103B3C003232323232323232323200E4BBBBE58ABC
:103B4C00A1E5908D202020202020E4BBBBE58AA19C
:103B5C00E78AB6E6808120E4BC98E58588E7BAA7B9
:103B6C00202020E589A9E4BD99E6A08820E4BBBB10
:103B7C00E58AA1E5BA8FE58FB70D0A000D0A25730A
:103B8C000D0A0031323300343536007461736B6CBE
:103B9C006973740034343434343434343434343459
:103BAC00340025733A207853656D6170686F7265C7
:103BBC004372656174654D75746578206661696CD6
:103BCC0065640A0D0025733A20696E76616C696430
:103BDC00206D757465780A0D0025733A207853654D
:103BEC006D6170686F726554616B65206661696C9C
:103BFC0065640A0D0025733A207853656D61706811
:103C0C006F726547697665206661696C65640A0D3B
:103C1C0000546869732D69732D70727649646C65F4
:103C2C005461736B0A0D0049444C450078506F7217
:103C3C007453746172745363686564756C65725FF8
:103C4C0063726561745F737563636573730A0D00EA
:103C5C0078506F72745374617274536368656475D1
:103C6C006C65725F456E645363686564756C6572F0
:103C7C000A0D000925630925750925750925750D9A
:023C8C000A002C
:00000001FF
