:100000000C942A000C9447000C9447000C9468133D
:100010000C9447000C9447000C9447000C94470044
:100020000C9447000C9447000C9447000C94470034
:100030000C9447000C9447000C9447000C94470024
:100040000C9447000C9447000C9447000C94470014
:100050000C94470011241FBECFE5D4E0DEBFCDBF16
:1000600011E0A0E6B0E0E6E6F0E302C005900D92F4
:10007000A438B107D9F722E0A4E8B1E001C01D928D
:10008000A430B207E1F70E946B130C9431180C9462
:100090000000CF93DF93FC01A0E9B1E0CD91DC91AA
:1000A0001197CE17DF0710F4DE01F8CF12968D916D
:1000B0009C9113979D01280F391FE217F30749F40C
:1000C00022813381820F931F13969C938E931297F4
:1000D000FD01828193819F01280F391FC217D30729
:1000E00091F420918E0130918F01C217D30759F0FE
:1000F0002A813B81820F931F938382838881998118
:100100009183808302C0D183C083EA17FB0711F07B
:10011000ED93FC93DF91CF910895CF92DF92EF9210
:10012000FF920F931F93CF93DF93EC010E94DD05A5
:10013000C0908401D0908501C6018C239D23892B1A
:1001400009F06BC0209709F468C09E012C5F3F4FF7
:10015000C217D30708F061C02115310509F45DC04D
:10016000E0908C01F0908D01E216F30608F455C082
:10017000C0919001D0919101E0E9F1E04A815B8169
:100180004217530740F080918E0190918F01C8175C
:10019000D90741F442C0888199810097A1F3FE01FB
:1001A000EC01ECCF008111810C5F1F4F8881998198
:1001B00091838083421B530B4930510550F0CE018F
:1001C000820F931FFC01538342833B832A830E9447
:1001D00049002A813B81C701821B930B90938D01BB
:1001E00080938C0140918A0150918B01841795076F
:1001F00020F490938B0180938A01C22AD32ADB8258
:10020000CA82198218828091880190918901019691
:10021000909389018093880102C000E010E00E9461
:10022000FC060115110511F40E941612C801DF9198
:10023000CF911F910F91FF90EF90DF90CF90089595
:10024000CF93DF930097A9F1EC0124978A819B81DA
:100250002091840130918501AC0142235323452B29
:1002600041F148815981452B21F520953095822314
:1002700093239B838A830E94DD0520918C0130911A
:100280008D018A819B81820F931F90938D018093B2
:100290008C01CE010E9449008091860190918701D6
:1002A00001969093870180938601DF91CF910C9402
:1002B000FC06DF91CF91089580918C0190918D0182
:1002C000089580918A0190918B010895CF93DF93D7
:1002D000BC01A0918E01B0918F01FC0190E040E043
:1002E00050E0228133812115310549F10190F081DF
:1002F000E02D911108C0F0939101E09390011092CC
:1003000093011092920124503109EF01C20FD31FC3
:100310001B821A821982188233832283D183C0837D
:10032000109711F0ED93FC93420F531F9F5FFB0159
:1003300084E09802E00DF11D1124DE01D2CFB093CC
:100340008F01A0938E0150938B0140938A015093AB
:100350008D0140938C0180E090E89093850180931B
:100360008401DF91CF910895CF92DF92EF92FF92B7
:100370000F931F93CF93DF93EC010E94DD05E09173
:100380009001F0919101309701F120918E0130910F
:100390008F01EE24EA94FE2CC12CD12C00E010E059
:1003A0000F5F1F4F82819381C816D90608F46C0134
:1003B000009721F08E159F0508F47C010190F081D3
:1003C000E02DE217F30761F707C0EE24EA94FE2C54
:1003D000C12CD12C00E010E00E94FC06DB82CA8216
:1003E000FD82EC821F830E830FB6F8940F928091EA
:1003F0008C0190918D0199838883809188019091DF
:1004000089019B878A8780918601909187019D87CA
:100410008C8780918A0190918B01998788870F90B2
:100420000FBEDF91CF911F910F91FF90EF90DF9062
:10043000CF9008954AE0489F9001499F300D1124C4
:100440002115310511F0C90102C081E090E00C9442
:10045000FF07CF93DF93CDB7DEB79E01255F3F4FF8
:1004600049855A856F8178858D819E810E943D15D1
:10047000DF91CF9108950C948D00009711F00C94AA
:10048000200108950C945C010C946101CF93DF93DB
:10049000D82FC92F0E94970C8AE790E09F938F93E3
:1004A0000E940515CF93DF938AEA90E09F938F9384
:1004B0000E9405158D2F9C2F0E9420010E94610132
:1004C000EC010E945C01DF93CF939F938F938FEA9F
:1004D00090E09F938F930E9405158DB79EB70C9661
:1004E0000FB6F8949EBF0FBE8DBFDF91CF910895D8
:1004F00080E090E00C942405EF92FF920F93009718
:10050000C1F0FC01608171816115710591F07C0180
:1005100082E0E80EF11C26813781428553850085F3
:10052000848195810E940004813031F480E090E064
:1005300005C081E090E002C082E090E00F91FF9062
:10054000EF9008950C94AF05FC010396928381838C
:100550002FEF3FEF348323839683858390878783B0
:1005600010820895FC01118610860895CF93DF93C1
:100570009C01FB01DC011196CD91DC911297D38394
:10058000C2838C819D81958384838C819D81DC01D4
:1005900013967C936E9312977D836C8331872087AB
:1005A000F90180818F5F8083DF91CF9108950F9350
:1005B0001F93CF93DF938C01FB01808191818F3F4B
:1005C0002FEF920721F4E801AF81B8850EC0D80162
:1005D000139612962D913C911397E9014881598108
:1005E0008417950710F0D901F4CF12968D919C9144
:1005F000139793838283EC01FD83EC83B583A483FB
:100600001396FC93EE93129711870087F80180816F
:100610008F5F8083DF91CF911F910F910895CF93CA
:10062000DF93FC01A085B18582819381248135818E
:10063000EC013D832C83C481D5819B838A831196F1
:100640008D919C911297E817F90721F41296DC938B
:10065000CE931197118610868C9181508C938C913A
:10066000DF91CF910895FC016083319770833197BA
:100670001082319720E8208331971082779740834A
:10068000319750838397089586E083BD8DE085BDC3
:1006900089B7806C89BFA0919401B0919501CD91EB
:1006A000CDBFDD91DEBFFF91EF91DF91CF91BF9183
:1006B000AF919F918F917F916F915F914F913F91FA
:1006C0002F911F910F91FF90EF90DF90CF90BF90EF
:1006D000AF909F908F907F906F905F904F903F90E2
:1006E0002F901F900F900FBE0F90089581E00895F6
:1006F0000895E091BA01F091BB018081811103C09E
:100700008FEF9FEF09C0E091BA01F091BB01058026
:10071000F681E02D8081918190939A0180939901D7
:1007200008950F931F93CF93DF93EC010091A201E3
:100730001091A301809194019091950102960E94DD
:100740000F03C00FD11FE0919401F0919501D38365
:10075000C2836091940170919501C017D10760F434
:100760008091B8019091B9016E5F7F4FDF91CF9179
:100770001F910F910C94D7028091BA019091BB0107
:100780006E5F7F4F0E94D7028091990190919A01EC
:10079000C817D90720F4D0939A01C0939901DF912B
:1007A000CF911F910F9108958091A501882309F1A0
:1007B0000FB6F8940F92E091AB01F091AC01C681B5
:1007C000D781CE0102960E940F038091A40181502F
:1007D0008093A4018091A50181508093A5010F9081
:1007E0000FBE8F89988D0E942001CE010E942001AA
:1007F000DBCF8091CE018230B8F20E945A12D4CF62
:100800005F926F927F928F929F92AF92BF92CF92A0
:10081000DF92EF92FF920F931F93CF93DF933C01F0
:100820006B015A014901502ECA010E948D008C01B2
:10083000892B09F4F8C08AE290E00E948D00EC0157
:10084000892BC9F0188F0F8BA50165EA70E0C801EC
:100850000E94F71481E0A81AB1088F89988DA80E1C
:10086000B91EC114D104C9F0BE01675E7F4FF60105
:10087000C601089607C0C8010E942001D4C0E8172D
:10088000F90749F09F014191DB014D93BD01D90169
:100890002C912111F4CF18A201C0198E052D04301E
:1008A00008F003E00E8B0BA31CA26E01B2E0CB0E8E
:1008B000D11CC6010E94B202CE010C960E94B20267
:1008C000D987C88784E090E0801B91099D878C8739
:1008D000DB8BCA8B84E0FE01B596DF011D928A9501
:1008E000E9F719A6A401B301C5010E943303998356
:1008F0008883E114F10419F0F701D183C0830FB6A6
:10090000F8940F928091A4018F5F8093A40180914D
:10091000940190919501892BA9F5D0939501C093ED
:1009200094018091A4018130E9F58EEC91E00E9460
:10093000A40287ED91E00E94A40280EE91E00E9463
:10094000A40289EE91E00E94A40285EC91E00E944D
:10095000A4028CEB91E00E94A4028FEA91E00E9435
:10096000A40286EA91E00E94A40285EC91E09093B3
:10097000BB018093BA018CEB91E09093B901809315
:10098000B80110C08091A00181110CC0E0919401C8
:10099000F091950196898E89891720F0D093950161
:1009A000C093940180919B018F5F80939B0189A3E9
:1009B000EE898091A1018E1710F4E093A10189E0E6
:1009C0008E9FF0011124E253FE4F0180F281E02D51
:1009D000FD83EC83248135813F832E83A481B581FF
:1009E0001396DC92CE921297D582C482EE898E9FA6
:1009F000F0011124E253FE4FFB87EA8780818F5F6D
:100A000080830F900FBE8091A001882351F0E09168
:100A10009401F091950196898E89981710F40E949F
:100A20005A1281E001C08FEFDF91CF911F910F919A
:100A3000FF90EF90DF90CF90BF90AF909F908F90FE
:100A40007F906F905F9008950F931F93CF93DF93E4
:100A5000EC010FB6F8940F92892B21F4C091940108
:100A6000D09195018E010E5F1F4FC8010E940F03A8
:100A70008C899D89892B21F0CE010C960E940F0351
:100A800080919B018F5F80939B0180919401909155
:100A90009501C817D90759F4B80186EA91E00E9478
:100AA000B6028091A5018F5F8093A50107C0809158
:100AB000A40181508093A4010E9479030F900FBE7E
:100AC0008091940190919501C817D90739F08F89C9
:100AD000988D0E942001CE010E9420018091A001EA
:100AE000882349F08091940190919501C817D90706
:100AF00011F40E945A12DF91CF911F910F91089526
:100B0000209194013091950182179307F9F00FB667
:100B1000F8940F92FC01828593854091BA0150911F
:100B2000BB012091B8013091B9010F900FBE84171D
:100B3000950779F08217930761F0F1E0863A9F07F5
:100B400059F0892B49F081E090E0089580E090E031
:100B5000089582E090E0089584E090E00895EF9297
:100B6000FF920F9387E9E82E81E0F82E00E020E065
:100B700030E043E250E065ED70E084ED93E00E94E8
:100B80000004813079F4F8942FEF3FEF30939A010D
:100B9000209399018093A0011092A3011092A201C9
:100BA0000E944403809160000F91FF90EF900895A0
:100BB000F8941092A0010C947803809196018F5FB5
:100BC0008093960108950FB6F8940F928091A20138
:100BD0009091A3010F900FBE08958091A201909172
:100BE000A30108958091A4010895009721F48091B4
:100BF00094019091950149960895CF92DF92EF92DA
:100C0000FF920F931F93CF93DF93809196018111F1
:100C1000E0C0C091A201D091A3016E018FEFC81A6C
:100C2000D80AD092A301C092A201C114D104B9F490
:100C30008091BA019091BB012091B8013091B90126
:100C40003093BB012093BA019093B9018093B8010E
:100C500080919C018F5F80939C010E947903809119
:100C6000990190919A01C816D90608F49CC080E0B9
:100C700069E0E091BA01F091BB019081911103C04C
:100C80002FEF3FEF0FC0E091BA01F091BB0105805B
:100C9000F681E02D0680F781E02D22813381C21696
:100CA000D30628F430939A01209399017DC0C28520
:100CB000D3852481358146815781D90115965C936E
:100CC0004E93149746815781DA0113963C932E93E5
:100CD00012979F012E5F3F4F09811A810217130758
:100CE00011F45A8349831386128698819150988310
:100CF000A489B5891097F9F046855785008911892F
:100D0000EA011D830C8300891189E8015B834A8312
:100D10001196ED90FC901297AF01445F5F4FE4167F
:100D2000F50621F412961C930E931197158A148AD6
:100D30009C9191509C93A6899091A1019A1710F4CF
:100D4000A093A1016A9FD0011124A253BE4F119616
:100D50000D90BC91A02DB583A48314964D915C9108
:100D600015975783468314964D915C911597EA0128
:100D70003B832A8315963C932E9314972689629F72
:100D8000D0011124A253BE4FB387A2879C919F5FCD
:100D90009C93E0919401F09195019689291708F4AC
:100DA00068CF81E066CF80E0E0919401F0919501F9
:100DB000E689D9E0ED9FF0011124E253FE4F9081C6
:100DC000923008F081E090919D01992361F081E0DB
:100DD0000AC080919E0190919F01019690939F017E
:100DE00080939E0180E0DF91CF911F910F91FF9042
:100DF000EF90DF90CF900895EF92FF920F931F93A3
:100E0000CF93DF930FB6F8940F92809196018150A3
:100E10008093960180919601882311F080E0AFC005
:100E20008091A4018823D1F3E090B401F090B50142
:100E3000E0E0F0E039E041E08091AF01882309F47F
:100E400080C0D7011696ED91FC911797A489B589BA
:100E50006685778580899189EB019D838C83808964
:100E60009189EC017B836A83BF01645F7F4F119698
:100E70000D911C9112970617170721F412969C9357
:100E80008E931197158A148A8C9181508C93A28528
:100E9000B3858481958166817781EC017D836C8344
:100EA00066817781EB019B838A83CF01029611963D
:100EB0000D911C9112970817190721F412967C9333
:100EC0006E931197138612862C9121502C93A6892C
:100ED0002091A1012A1710F4A093A1013A9FD001FB
:100EE0001124A253BE4F11960D90BC91A02DB58335
:100EF000A48314966D917C911597778366831496DD
:100F00006D917C911597EB019B838A8315969C9339
:100F10008E9314979689399FD0011124A253BE4F06
:100F2000B387A2878C918F5F8C93A0919401B0912D
:100F3000950156968C91981708F47ECF40939D01A9
:100F40007BCFEF2B11F00E947903C0919E01D091CD
:100F50009F01209761F011E00E94FD05811110931F
:100F60009D012197C9F710929F0110929E018091D7
:100F70009D01882309F452CF0E945A1281E00F90FC
:100F80000FBEDF91CF911F910F91FF90EF900895C9
:100F90000F931F93CF93DF938C01EB010E94DD052C
:100FA0002091A2013091A301F80140815181CA0131
:100FB0008C0F9D1F2417350728F48417950748F4D4
:100FC000C1E004C0C1E08417950720F02817390755
:100FD00008F0C0E0F80191838083CC2321F0821BCC
:100FE000930B0E9491030E94FC06811102C00E9493
:100FF0005A128C2FDF91CF911F910F910895CF93AB
:10100000DF93EC01892B19F40E945A1209C00E9447
:10101000DD05CE010E9491030E94FC068823A1F306
:10102000DF91CF910895CF93DF93EC010E94DD050E
:1010300080919E0190919F01C80FD91FD0939F016D
:10104000C0939E01DF91CF910C94FC068091960194
:10105000882321F081E080939D01089510929D01E5
:101060008091A10169E0482F50E0649F9001659F45
:10107000300D1124F901E253FE4F9081911102C00D
:101080008150F1CFA181B28112960D90BC91A02D1B
:10109000B283A1832F523E4FA217B30731F41296A9
:1010A0002D913C9113973283218399E0949FF00115
:1010B000959FF00D1124E253FE4F0180F281E02D47
:1010C0002681378130939501209394018093A1016B
:1010D0000895CF93DF93EB01609194017091950196
:1010E000645F7F4F0E94D702CE01DF91CF910C94B5
:1010F0009103CF93DF93FC01A0919401B0919501EE
:1011000070681D967C936E931C97A181B281C091EB
:101110009401D0919501BF87AE87C0919401D09181
:10112000950114968D919C911597998B888B2091A0
:101130009401309195011496CD91DC911597245F1F
:101140003F4F3B832A832091940130919501245F86
:101150003F4F15963C932E931497A0919401B09114
:1011600095015596FC93EE93549790819F5F9083E1
:10117000CA01DF91CF910C949103CF93DF93DC01EF
:101180001596ED91FC9116970680F781E02DA489C4
:10119000B5898685978520893189EC013D832C832B
:1011A000C089D1899B838A83CF010C9611962D919A
:1011B0003C9112972817390721F41296DC93CE93AD
:1011C0001197158A148A2C9121502C932091960105
:1011D00021114FC0A285B3858481958126813781F5
:1011E000EC013D832C83C681D7819B838A839F0139
:1011F0002E5F3F4F11968D919C9112978217930706
:1012000021F41296DC93CE931197138612868C915B
:1012100081508C93A6898091A1018A1710F4A09324
:10122000A10189E08A9FD0011124A253BE4F1196DB
:101230000D90BC91A02DB583A48314964D915C9123
:101240001597578346831496CD91DC9115973B8370
:101250002A8315963C932E931497A6898A9FD001D2
:101260001124A253BE4FB387A2878C918F5F8C93BA
:101270001FC0A091B001B091B101B787A6871496A5
:101280002D913C911597318B208B1496CD91DC914B
:1012900015979B838A8315969C938E9314978FEA58
:1012A00091E0958B848B8091AF018F5F8093AF012C
:1012B000A0919401B0919501968956968C918917C9
:1012C00020F481E080939D0101C080E0DF91CF9107
:1012D0000895CF93DF93DC01706811967C936E9331
:1012E0001696ED91FC91179718964D915C91199770
:1012F00012962D913C91139714968D919C91159770
:10130000E9019D838C8314968D919C911597EC0136
:101310003B832A83EA0129813A81A217B30711F49A
:101320009A83898319961C921E921897DA018C91E0
:1013300081508C93A285B3858481958126813781E4
:10134000EC013D832C83C681D7819B838A83CF01A7
:10135000029611962D913C9112972817390721F486
:101360001296DC93CE931197138612862C912150FE
:101370002C93C6892091A1012C1710F4C093A101D0
:1013800049E04C9FE0011124C253DE4F0980DA810D
:10139000C02DD583C4832C813D81378326832C8146
:1013A0003D81D90113969C938E9312979D838C83D4
:1013B0009689499FD0011124A253BE4FB387A287BB
:1013C0008C918F5F8C93E0919401F09195018689C7
:1013D000891718F481E080939D01DF91CF910895E2
:1013E0000FB6F8940F9220919C01FC01208320916C
:1013F000A2013091A301328321830F900FBE089583
:1014000020919C01FC0120832091A2013091A30135
:101410003283218308950FB6F8940F922091A20190
:101420003091A301DC0111964D915C911297E091EE
:101430009C01FC91FE1741F02417350728F0FB01B1
:101440001182108281E010C0241B350BDB014D910D
:101450005C912417350798F7FB01421B530B51830E
:1014600040830E94000A80E00F900FBE089581E043
:1014700080939D010895009719F0FC0182A10895C1
:1014800080E00895009711F0FC0162A30895FF9297
:101490000F931F93CF93DF938C01EB01F42E892BD5
:1014A00021F4009194011091950119830883C801DA
:1014B00049969B838A83D80156968C9156978F8341
:1014C00057968D919C9158979E878D8791968C9178
:1014D00091978C8393968C91888719861A861B86A0
:1014E0001C862530310569F0809194019091950119
:1014F0000817190719F41E821D8208C03E832D8328
:1015000005C0C8010E9480059E838D83FF2091F055
:10151000D8015796ED91FC91589780E090E0DC015E
:101520002191253A21F40196A11DB11DF9CF988B87
:101530008F8702C0188A1F86DF91CF911F910F916C
:10154000FF9008957F928F929F92AF92BF92CF9219
:10155000DF92EF92FF920F931F93CF93DF93EB01F4
:1015600028812223D1F1E981FA81228133813A83D2
:1015700029836B0163E0C60ED11C2C153D0529F4AF
:10158000F601228133813A8329838A017C01E98132
:10159000FA8186809780712CE981FA81828193811A
:1015A0009A838983C816D90621F48D819E819A83F6
:1015B0008983E981FA81A680B780B701F1E17F9E36
:1015C000600D711D1124980141E0C5010E94470A78
:1015D00073948A149B0401F701C0712C872DDF914D
:1015E000CF911F910F91FF90EF90DF90CF90BF9020
:1015F000AF909F908F907F900895DF92EF92FF922F
:101600000F931F93CF93DF938C01C62F7A010E9413
:10161000DD058091A401C81708F44BC0D4E0C0E0F8
:1016200089E0D82ED150DD9EB001112462537E4F47
:1016300041E050E0C80121E1C29F800D911D1124BD
:101640000E94A20AC80FD111EDCF6091BA0170912A
:10165000BB0142E050E0C801E1E1CE9F800D911D49
:1016600011240E94A20AC80F6091B8017091B901BB
:1016700042E050E0C801F1E1CF9F800D911D11249F
:101680000E94A20AC80F44E050E066EA71E0C80177
:1016900021E1C29F800D911D11240E94A20AC80F52
:1016A000E114F10439F0F7011082118212821382E1
:1016B00001C0C0E00E94FC068C2FDF91CF911F91EA
:1016C0000F91FF90EF90DF90089580919401909199
:1016D000950108950F931F93CF93DF93FC01892BFE
:1016E00009F46EC08689A0919401B0919501569637
:1016F0009C91891708F05AC02485358537FD0CC0A8
:10170000A0919401B091950156969C9124E030E00F
:10171000291B31093587248729E0829FC0011124C4
:1017200082539E4F2285338528173907B1F5EF0183
:101730008F010E5F1F4FC8010E940F03E0919401BB
:10174000F0919501E689EE8B8091A1018E1710F43E
:10175000E093A10189E08E9FF0011124E253FE4F36
:101760000180F281E02DFD83EC83248135813F836C
:101770002E83A481B58113961C930E931297158323
:101780000483EE898E9FF0011124E253FE4FFB8704
:10179000EA8780818F5F808307C0A0919401B09118
:1017A000950156968C91868B81E00BC0A091940197
:1017B000B091950181E023A156969C91291708F0DC
:1017C00080E0DF91CF911F910F9108950F931F93A8
:1017D000CF93DF93EC01892B11F480E044C08CA1FE
:1017E00081508CA32E899BA12917B9F38111F5CFC4
:1017F0008E010E5F1F4FC8010E940F038BA18E8BBD
:10180000482F50E024E030E0241B350B3D872C8727
:101810009091A101981710F48093A10189E0849F11
:10182000F001859FF00D1124E253FE4F0180F281FB
:10183000E02DFD83EC83248135813F832E83A481B9
:10184000B58113961C930E93129715830483EE892A
:101850008E9FF0011124E253FE4FFB87EA878081BF
:101860008F5F808381E0DF91CF911F910F91089569
:101870000F931F93CF93DF93FC01892B09F452C080
:1018800093A1961708F4962F8689891709F44AC000
:1018900024A1213009F046C0968B2485358537FD7B
:1018A00006C024E030E0291B31093587248729E070
:1018B000829FC001112482539E4F228533852817B1
:1018C000390781F5EF018F010E5F1F4FC8010E949C
:1018D0000F03EE898091A1018E1710F4E093A1010E
:1018E00089E08E9FF0011124E253FE4F0180F281C6
:1018F000E02DFD83EC83248135813F832E83A481F9
:10190000B58113961C930E93129715830483EE8969
:101910008E9FF0011124E253FE4FFB87EA878081FE
:101920008F5F8083DF91CF911F910F9108958F92E8
:101930009F92AF92BF92CF92DF92EF92FF920F935E
:101940001F93CF93DF93EC011882F090A401809154
:10195000A40121E1829FC00111240E948D008C010D
:10196000009709F46EC040E050E06F2D0E94FD0A20
:10197000A82E6801B12C80E2982E9AEDE92E90E015
:10198000F92EBA1409F44EC0F6018581968185308E
:10199000910528F4FC01EB58FF4F808001C0812C99
:1019A000F60162817381CE010E94FE14FE01019056
:1019B0000020E9F73197CF018C1B9D0BFE01E80F4A
:1019C000F91F8730910518F491920196FACFC80F4C
:1019D000D91F1882F60184811F928F9380898F937B
:1019E00087858F9387811F928F93882D082C000CF9
:1019F000990B9F938F92FF92EF92DF93CF930E9468
:101A00001B1509900020E9F72197B39481E1C80ED6
:101A1000D11CEDB7FEB73C960FB6F894FEBF0FBED3
:101A2000EDBFAFCFC801DF91CF911F910F91FF9014
:101A3000EF90DF90CF90BF90AF909F908F900C94DD
:101A40002001DF91CF911F910F91FF90EF90DF90D8
:101A5000CF90BF90AF909F908F900895E0919401A8
:101A6000F091950184859585E0919401F09195011F
:101A7000A0919401B091950156964C9124E030E0EC
:101A8000241B310935872487089580919401909112
:101A90009501892B39F0E0919401F091950184A191
:101AA0008F5F84A380919401909195010895CF92C6
:101AB000DF92EF92FF920F931F93CF93DF93F62E57
:101AC0000FB6F8940F92E0919401F0919501C82F10
:101AD000D0E08E01000F111F000F111FE00FF11F4A
:101AE00085A196A1A7A1B0A5892B8A2B8B2B81F468
:101AF000E0919401F0919501EC0FFD1F81E081A729
:101B00004115510529F0CA010E9491030E945A1201
:101B10000F900FBE0FB6F8940F92E0919401F091E0
:101B20009501E00FF11F65A176A187A190A5611530
:101B3000710581059105C9F02091940130919501BD
:101B4000F901E00FF11FFF2029F015A216A217A23C
:101B500010A60BC06B017C0121E0C21AD108E1087C
:101B6000F108C5A2D6A2E7A2F0A620919401309177
:101B70009501C20FD31F19A60F900FBEDF91CF9111
:101B80001F910F91FF90EF90DF90CF9008958F926B
:101B90009F92AF92BF92CF92DF92EF92FF920F93FC
:101BA0001F93CF93DF93480159010FB6F8940F921A
:101BB000E0919401F0919501C82FD0E0EC0FFD1F4A
:101BC00081A5823059F1E0919401F0919501CE0107
:101BD000880F991F880F991FE80FF91F85A196A1FB
:101BE000A7A1B0A5409550956095709548235923BD
:101BF0006A237B2345A356A367A370A7E0919401B2
:101C0000F0919501EC0FFD1F81E081A7C114D10473
:101C100029F0C6010E9491030E945A120F900FBE34
:101C20000FB6F8940F92E114F104A1F0E091940141
:101C3000F0919501CE01880F991F880F991FE80F29
:101C4000F91F85A196A1A7A1B0A5F7018083918373
:101C5000A283B383E0919401F0919501EC0FFD1FF5
:101C600081A58230E9F4E0919401F0919501CE01D3
:101C7000880F991F880F991FE80FF91F85A196A15A
:101C8000A7A1B0A580949094A094B09488229922A2
:101C9000AA22BB2285A296A2A7A2B0A681E001C07B
:101CA00080E02091940130919501C20FD31F19A6B5
:101CB0000F900FBEDF91CF911F910F91FF90EF908A
:101CC000DF90CF90BF90AF909F908F9008958F92AC
:101CD0009F92AF92BF92CF92DF92EF92FF920F93BB
:101CE0001F93CF93DF93DC010FB6F8940F9270E04F
:101CF000E114F10481F0FB01EE0FFF1FEE0FFF1F57
:101D0000E80FF91F85A096A0A7A0B0A4E7018882DC
:101D10009982AA82BB82FD01E60FF71F81A592E09E
:101D200091A702301105E9F0A8F401301105D9F5A9
:101D3000660F771F660F771FFD01E60FF71FC5A01F
:101D4000D6A0E7A0F0A4BA01A9014C295D296E290B
:101D50007F2916C003301105D9F004301105A9F010
:101D600022C0660F771F660F771FFD01E60FF71F72
:101D700045A156A167A170A54F5F5F4F6F4F7F4F81
:101D800045A356A367A370A70EC0823009F471C0A3
:101D9000660F771F660F771FFD01E60FF71F25A35C
:101DA00036A347A350A7813009F061C01A96ED9180
:101DB000FC911B9714968D919C91159716962D91D9
:101DC0003C911797EC013D832C831696CD91DC91C5
:101DD00017979B838A839D012E5F3F4F818192815C
:101DE0008217930711F4D283C1831B961C921E9213
:101DF0001A978081815080835696CC915697809116
:101E0000A1018C1710F4C093A10149E04C9FE0019F
:101E10001124C253DE4F0980DA81C02D1596DC9360
:101E2000CE9314978C819D8117969C938E931697D1
:101E30008C819D81FC01338322833D832C835696C4
:101E40009C915697499FF0011124E253FE4F1B9637
:101E5000FC93EE931A9780818F5F8083E0919401C9
:101E6000F09195018689891710F40E945A1281E039
:101E700001C080E00F900FBEDF91CF911F910F91B5
:101E8000FF90EF90DF90CF90BF90AF909F908F909A
:101E900008958F929F92AF92BF92CF92DF92EF926E
:101EA000FF920F931F93CF93DF93DC0170E0E11457
:101EB000F10481F0FB01EE0FFF1FEE0FFF1FE80F93
:101EC000F91F85A096A0A7A0B0A4E70188829982F7
:101ED000AA82BB82FD01E60FF71F81A592E091A7C0
:101EE00002301105E9F0A8F401301105D9F5660FAB
:101EF000771F660F771FFD01E60FF71F85A096A0DD
:101F0000A7A0B0A4BA01A901482959296A297B29A7
:101F100016C003301105D9F004301105A9F022C014
:101F2000660F771F660F771FFD01E60FF71F45A1AC
:101F300056A167A170A54F5F5F4F6F4F7F4F45A3BD
:101F400056A367A370A70EC0823009F4A0C0660F25
:101F5000771F660F771FFD01E60FF71F25A336A336
:101F600047A350A7813011F081E092C08091960183
:101F7000811158C01A96ED91FC911B9714968D9182
:101F80009C91159716962D913C911797EC013D83E6
:101F90002C831696CD91DC9117979B838A839D01A4
:101FA0002E5F3F4F818192818217930711F4D28374
:101FB000C1831B961C921E921A9780818150808348
:101FC0005696EC9156978091A1018E1710F4E093EC
:101FD000A10189E08E9FF0011124E253FE4F0180A0
:101FE000F281E02D1596FC93EE9314974481558170
:101FF00017965C934E931697C481D5813B832A83B1
:10200000358324835696EC9156978E9FF0011124C8
:10201000E253FE4F1B96FC93EE931A9780818F5FDD
:10202000808321C0E091B001F091B1011F96FC9333
:10203000EE931E978481958151969C938E93509731
:10204000C481D581CD010C969B838A83958384833B
:102050008FEA91E055969C938E9354978091AF01AF
:102060008F5F8093AF01E0919401F09195015696B6
:102070009C918689891708F077CFC114D10419F093
:1020800081E0F601808381E080939D0101C080E0C2
:10209000DF91CF911F910F91FF90EF90DF90CF9044
:1020A000BF90AF909F908F9008950F931F93CF9301
:1020B000DF93FC01A62FB0E0EC01CA0FDB1F89A55E
:1020C00092E099A7AA0FBB1FAA0FBB1FAE0FBF1F9D
:1020D00095960D911D912D913C9198970F5F1F4FF3
:1020E0002F4F3F4F95960D931D932D933C939897AB
:1020F000813009F086C08091960181114FC0A28580
:10210000B3858481958126813781EC013D832C83C1
:10211000C681D7819B838A839F012E5F3F4F119693
:102120008D919C9112978217930721F41296DC935C
:10213000CE931197138612868C9181508C93A68929
:102140008091A1018A1710F4A093A10189E08A9FD0
:10215000D0011124A253BE4F11960D90BC91A02D19
:10216000B583A48314966D917C91159777836683CC
:102170001496CD91DC9115973B832A8315963C9359
:102180002E931497A6898A9FD0011124A253BE4F83
:10219000B387A2878C918F5F8C9321C0A091B001EF
:1021A000B091B101B787A68714968D919C91159730
:1021B000918B808B1496CD91DC911597CF010C9665
:1021C0009B838A8315969C938E9314978FEA91E054
:1021D000958B848B8091AF018F5F8093AF01A0912D
:1021E0009401B0919501968956968C91891748F47F
:1021F0004115510519F081E0FA01808381E0809357
:102200009D01DF91CF911F910F910895009721F4C7
:1022100080919401909195010FB6F8940F92FC0172
:10222000E60FF11D81A5823019F411A681E001C0ED
:1022300080E00F900FBE0895CF92DF92EF92FF9251
:102240000F931F93009721F4809194019091950131
:102250000FB6F8940F92FC0174E0679FE00DF11D3A
:10226000112465A176A187A190A5C5A0D6A0E7A05D
:10227000F0A489019A0100951095209530950C21C4
:102280001D212E213F2105A316A327A330A70F90C0
:102290000FBE1F910F91FF90EF90DF90CF900895A8
:1022A0002CB32111FDCF9FBB8EBB6DBB8FB7F894B4
:1022B000E29AE19A8FBF1FBA1EBA0895CF92DF92B9
:1022C000EF92FF920F931F93CF93DF937C016B01EB
:1022D0008A01C0E0D0E0C017D1074CF4F60161815B
:1022E000CE018E0D9F1D0E9450112196F4CFDF91DB
:1022F000CF911F910F91FF90EF90DF90CF900895B5
:102300002CB32111FDCF9FBB8EBBE09A1FBA1EBA22
:102310008DB30895CF92DF92EF92FF920F931F93A8
:10232000CF93DF937C016B018A01C0E0D0E0C0173E
:10233000D1074CF4CE018E0D9F1D0E948011F60135
:1023400081832196F4CFDF91CF911F910F91FF9060
:10235000EF90DF90CF9008955F9BFECF8CB10895F2
:10236000CF93C82F8A3019F48DE00E94B0115D9B85
:10237000FECFCCB980E090E0CF9108955D9BFECF79
:102380008CB90895CF93DF93EC018991882319F0DC
:102390000E94BE11FACF8DE0DF91CF910C94BE1157
:1023A0001AB81BB886E880BD83E389B910BC88E9F8
:1023B0008AB981E690E0909301028093000208952B
:1023C000899A8898919A909A089589EE90E00E944F
:1023D000C21188EE93E00E941A02F7CF8091F801B3
:1023E0009091F9010E94460288EE93E00E941A0241
:1023F000F5CF8AEA8BBB8ABB18BA17BA15BA14BADA
:1024000012BA11BA0C94E011F8940E94F9110E94CA
:10241000D01183EC89BF789408958DEE90E00E94EE
:10242000C21188EE93E00E941A02F7CF81EF90E08C
:102430000C94C2110F931F93CF93DF93CDB7DEB7E8
:1024400028970FB6F894DEBF0FBECDBF81E090E0B5
:102450000E94D6139A83898300E014E0081B190BAD
:102460001C830B831E821D8218861F829F938F936D
:1024700086E091E09F938F930E9405151F930F9321
:1024800082E191E09F938F930E940515CE01019602
:102490000E9466010FB6F894DEBF0FBECDBF28962E
:1024A0000FB6F894DEBF0FBECDBFDF91CF911F9165
:1024B0000F9108950F920FB6F8940F921F92112466
:1024C0002F923F924F925F926F927F928F929F9244
:1024D000AF92BF92CF92DF92EF92FF920F931F9332
:1024E0002F933F934F935F936F937F938F939F931C
:1024F000AF93BF93CF93DF93EF93FF93A09194019A
:10250000B09195010DB60D920EB60D920E9426085F
:10251000A0919401B0919501CD91CDBFDD91DEBF29
:10252000FF91EF91DF91CF91BF91AF919F918F91EB
:102530007F916F915F914F913F912F911F910F91DB
:10254000FF90EF90DF90CF90BF90AF909F908F90D3
:102550007F906F905F904F903F902F901F900F90C3
:102560000FBE0F9008950F920FB6F8940F921F921E
:1025700011242F923F924F925F926F927F928F928F
:102580009F92AF92BF92CF92DF92EF92FF920F9302
:102590001F932F933F934F935F936F937F938F93EB
:1025A0009F93AF93BF93CF93DF93EF93FF93A0914C
:1025B0009401B09195010DB60D920EB60D920E9448
:1025C0002608A0919401B0919501CD91CDBFDD91E8
:1025D000DEBFFF91EF91DF91CF91BF91AF919F91BE
:1025E0008F917F916F915F914F913F912F911F91AB
:1025F0000F91FF90EF90DF90CF90BF90AF909F90A2
:102600008F907F906F905F904F903F902F901F9092
:102610000F900FBE0F9018950F920FB6F8940F926F
:102620001F9211242F923F924F925F926F927F924E
:102630008F929F92AF92BF92CF92DF92EF92FF92D2
:102640000F931F932F933F934F935F936F937F93BA
:102650008F939F93AF93BF93CF93DF93EF93FF93AA
:10266000A0919401B09195010DB60D920EB60D9208
:102670000E94FD0581110E942608A0919401B0914D
:102680009501CD91CDBFDD91DEBFFF91EF91DF913F
:10269000CF91BF91AF919F918F917F916F915F91FA
:1026A0004F913F912F911F910F91FF90EF90DF90ED
:1026B000CF90BF90AF909F908F907F906F905F90E2
:1026C0004F903F902F901F900F900FBE0F90089546
:1026D0000E940C131895CF93DF93CDB7DEB72C97DC
:1026E0000FB6F894DEBF0FBECDBF0E94041286E97C
:1026F00090E00E94D6139093F9018093F8010E9414
:102700001A128CE191E09A83898383E090E09A87A2
:10271000898718861F828CE390E09C878B87809145
:10272000F4019091F5019C838B838EEE91E19E8361
:102730008D83CE0101960E947C02882321F082E2E3
:1027400091E00E94C2118EE391E09A83898383E035
:1027500090E09A87898718861F828DE290E09C8797
:102760008B878091F2019091F3019C838B8385EE9E
:1027700091E19E838D83CE0101960E947C02882385
:1027800021F085E491E00E94C2110E94A20281E63C
:1027900091E00E94C21180E090E02C960FB6F89470
:1027A000DEBF0FBECDBFDF91CF9108950F931F9372
:1027B000CF93DF938230910510F482E090E0E091B6
:1027C000FC01F091FD0120E030E0A0E0B0E03097A6
:1027D00019F1408151810281138148175907C8F0CE
:1027E0008417950769F4109731F012960C9312979D
:1027F00013961C9327C00093FC011093FD0122C087
:102800002115310519F04217530718F49A01BD013B
:10281000EF01DF01F801DBCF21153105F9F0281BAD
:10282000390B2430310580F48A819B816115710553
:1028300021F0FB019383828304C09093FD01809378
:10284000FC01FE01329644C0FE01E20FF31F8193AA
:10285000919322503109398328833AC02091FA019B
:102860003091FB01232B41F42091710030917200D3
:102870003093FB012093FA0120916F00309170009A
:102880002115310541F42DB73EB7409173005091A9
:102890007400241B350BE091FA01F091FB01E21763
:1028A000F307A0F42E1B3F0B2817390778F0AC0173
:1028B0004E5F5F4F2417350748F04E0F5F1F509350
:1028C000FB014093FA018193919302C0E0E0F0E0B4
:1028D000CF01DF91CF911F910F910895CF93DF9397
:1028E000009709F481C0FC01329713821282A091F3
:1028F000FC01B091FD01109781F420813181820F9C
:10290000931F2091FA013091FB012817390751F5E7
:10291000F093FB01E093FA0167C0ED0120E030E0A5
:10292000CE17DF0740F44A815B819E0141155105B6
:10293000F1F0EA01F5CFD383C28340815181840F46
:10294000951FC817D90759F488819981840F951F5D
:102950000296918380838A819B8193838283211550
:10296000310529F4F093FD01E093FC013DC0E9013C
:10297000FB83EA8349915991C40FD51FEC17FD07DA
:1029800061F480819181840F951F0296E9019983FA
:102990008883828193819B838A83E0E0F0E01296B2
:1029A0008D919C911397009719F0FD01DC01F7CFF1
:1029B0008D919C9111979D012E5F3F4F820F931F28
:1029C0002091FA013091FB012817390769F43097FB
:1029D00029F41092FD011092FC0102C013821282B0
:1029E000B093FB01A093FA01DF91CF910895DC0130
:1029F00001C06D9341505040E0F70895FB01DC01A8
:102A000001900D920020E1F70895A0E0B0E0EBE026
:102A1000F5E10C940A18AE014B5F5F4FFA0161912A
:102A20007191AF0180910002909101020E9469159D
:102A3000E2E00C942618AEE0B0E0E1E2F5E10C949F
:102A400008180D891E8986E08C831A8309838FEF0D
:102A50009FE79E838D83AE01475E5F4F6F89788DC0
:102A6000CE0101960E946915EF81F885E00FF11FF4
:102A700010822E96E4E00C942418AEE0B0E0E3E47B
:102A8000F5E10C9408188C01FA0186E08C831A8316
:102A9000098377FF02C060E070E8CB0101979E8355
:102AA0008D83A901BF01CE0101960E9469154D8158
:102AB0005E8157FD0AC02F813885421753070CF4F9
:102AC0009A01F801E20FF31F10822E96E4E00C94B5
:102AD0002418ABE0B0E0EFE6F5E10C94FA176C01D6
:102AE0007B018A01FC0117821682838181FFCCC1A0
:102AF000CE0101963C01F6019381F70193FD85918A
:102B000093FF81917F01882309F4BAC1853239F49A
:102B100093FD859193FF81917F01853229F4B60160
:102B200090E00E946017E7CF912C212C312CFFE11F
:102B3000F315D8F08B3279F038F4803279F08332A3
:102B4000A1F4232D20611DC08D3261F0803369F422
:102B5000232D216016C0832D8260382EE32DE46082
:102B60003E2E2AC0F32DF8601DC037FC2DC020ED8D
:102B7000280F2A3040F08E32B9F436FC81C1232D63
:102B80002064322E19C036FE06C08AE0989E200DC1
:102B90001124922E11C0EAE02E9E200D1124222E27
:102BA000F32DF0623F2E08C08C3621F4832D80680F
:102BB000382E02C0883641F4F70193FD859193FFCA
:102BC00081917F018111B3CF982F9F7D95549330D0
:102BD00028F40C5F1F4F9FE399830DC0833631F0BB
:102BE000833771F0833509F059C021C0F801808125
:102BF00089830E5F1F4F88248394912C530113C047
:102C00002801F2E04F0E511CF801A080B18036FE81
:102C100003C0692D70E002C06FEF7FEFC5010E9415
:102C200055174C018201F32DFF773F2E16C0280166
:102C300022E0420E511CF801A080B18036FE03C094
:102C4000692D70E002C06FEF7FEFC5010E944A1747
:102C50004C01F32DF0683F2E820133FC1BC0822D06
:102C600090E088169906B0F4B60180E290E00E94E8
:102C700060172A94F4CFF50137FC859137FE8191D6
:102C80005F01B60190E00E94601721102A9421E0B4
:102C9000821A91088114910471F7E8C0843611F00A
:102CA000893641F5F80137FE07C060817181828164
:102CB00093810C5F1F4F08C060817181072E000C4B
:102CC000880B990B0E5F1F4FF32DFF763F2E97FF5A
:102CD00009C090958095709561957F4F8F4F9F4F5C
:102CE000F0683F2E2AE030E0A3010E949C17882E56
:102CF000861845C0853731F4232D2F7EB22E2AE069
:102D000030E025C0932D997FB92E8F36C1F018F48D
:102D1000883579F0B5C0803719F0883721F0B0C018
:102D2000E92FE061BE2EB4FE0DC0FB2DF460BF2E76
:102D300009C034FE0AC0292F2660B22E06C028E042
:102D400030E005C020E130E002C020E132E0F801CF
:102D5000B7FE07C060817181828193810C5F1F4F34
:102D600006C06081718180E090E00E5F1F4FA3017B
:102D70000E949C17882E8618FB2DFF773F2E36FE6B
:102D80000DC0232D2E7FA22E891458F434FE0BC0C3
:102D900032FC09C0832D8E7EA82E05C0B82CA32C32
:102DA00003C0B82C01C0B92CA4FE0FC0FE01E80D71
:102DB000F11D8081803321F49A2D997EA92E09C0BE
:102DC000A2FE06C0B394B39404C08A2D867809F09D
:102DD000B394A3FC11C0A0FE06C0B21488F4280C62
:102DE000922C9B180EC0B21460F4B60180E290E001
:102DF0000E946017B394F7CFB21418F42B1802C0D6
:102E0000982C212CA4FE10C0B60180E390E00E9413
:102E10006017A2FE17C0A1FC03C088E790E002C0C3
:102E200088E590E0B6010CC08A2D867859F0A1FEA5
:102E300002C08BE201C080E2A7FC8DE2B60190E007
:102E40000E946017891438F4B60180E390E00E9474
:102E500060179A94F7CF8A94F301E80DF11D8081F1
:102E6000B60190E00E9460178110F5CF222009F48E
:102E700042CEB60180E290E00E9460172A94F6CF1D
:102E8000F6018681978102C08FEF9FEF2B96E2E1DA
:102E90000C941618FC010590615070400110D8F791
:102EA000809590958E0F9F1F0895FC016150704092
:102EB00001900110D8F7809590958E0F9F1F08956F
:102EC0000F931F93CF93DF93FB01238121FD03C059
:102ED0008FEF9FEF2CC022FF16C0468157812481BF
:102EE00035814217530744F4A081B1819D012F5FC2
:102EF0003F4F318320838C93268137812F5F3F4F53
:102F00003783268314C08B01EC01FB010084F1851B
:102F1000E02D0995892BE1F6D80116968D919C91AB
:102F20001797019617969C938E931697CE01DF9173
:102F3000CF911F910F910895FA01AA27283051F1DE
:102F4000203181F1E8946F936E7F6E5F7F4F8F4FDA
:102F50009F4FAF4FB1E03ED0B4E03CD0670F781F39
:102F6000891F9A1FA11D680F791F8A1F911DA11D1E
:102F70006A0F711D811D911DA11D20D009F4689457
:102F80003F912AE0269F11243019305D3193DEF6FF
:102F9000CF010895462F4770405D4193B3E00FD0B5
:102FA000C9F7F6CF462F4F70405D4A3318F0495DA0
:102FB00031FD4052419302D0A9F7EACFB4E0A69583
:102FC0009795879577956795BA95C9F700976105A5
:102FD000710508959B01AC010A2E069457954795FB
:102FE00037952795BA95C9F7620F731F841F951FF0
:102FF000A01D08952F923F924F925F926F927F9201
:103000008F929F92AF92BF92CF92DF92EF92FF92F8
:103010000F931F93CF93DF93CDB7DEB7CA1BDB0BA4
:103020000FB6F894DEBF0FBECDBF09942A88398849
:1030300048885F846E847D848C849B84AA84B98450
:10304000C884DF80EE80FD800C811B81AA81B9815C
:10305000CE0FD11D0FB6F894DEBF0FBECDBFED0170
:063060000895F894FFCF73
:10306600030000000300000000B011AC11000000D6
:10307600000402200058524253440A0DE4BBBBE54B
:103086008AA1E5908D2020E78AB6E6808120E4BCFF
:1030960098E58588E7BAA720E589A9E4BD99E6A061
:1030A6008820E5BA8FE58FB70D000A25730D004617
:1030B6007265655F486561703A25642C4D696E5F7F
:1030C600457665725F467265655F486561703A254B
:1030D600640D0A0D0049444C450009256309257510
:1030E6000925750925750D0A002D2D0A0031310AAD
:1030F600000A0A4D616C6C6F634661696C656448D1
:103106006F6F6B0A0A006164726573733A202564F7
:103116000A0073697A653A2025640A005441534BC4
:103126003200327461736B2D546872656164437248
:10313600656174652D69732D6661696C0A00746B2F
:103146006C69737400337461736B2D5468726561B6
:10315600644372656174652D69732D6661696C0AD5
:10316600006672656572746F732073746172742081
:103176006661696C2C6920616D205B66616C7365A4
:043186005D0A0000DE
:00000001FF
